:020000041000EA
:1000000000000208633300100D000000C53300102B
:1000100000000000000000000000000000000000E0
:10002000000000000000000000000000C1330010CC
:100030000000000000000000C1330010C1330010B8
:10004000C1330010C1330010C1330010C1330010A0
:10005000C1330010C1330010C1330010C133001090
:10006000C1330010C1330010C1330010C133001080
:10007000C1330010C1330010C1330010C133001070
:10008000C1330010C1330010C1330010C133001060
:10009000C1330010C1330010C1330010C133001050
:1000A000C1330010C1330010C1330010C133001040
:1000B000C1330010C1330010C1330010C133001030
:1000C0000448054B10B5834203D0044B002B00D0ED
:1000D000984710BDF00E0008F00E00080000000068
:1000E00006480749091A8B10C90FC91810B54910DD
:1000F00003D0044B002B00D0984710BDF00E000831
:10010000F00E00080000000010B5074C2378002B0B
:1001100009D1FFF7D5FF054B002B02D0044800E0C2
:1001200000BF0123237010BD4C0F00080000000029
:1001300098E30010054B10B5002B03D00449054887
:1001400000E000BFFFF7CCFF10BDC046000000007C
:10015000500F000898E300100FB400B583B004AA54
:1001600002CA0192044B1B68D8680BF02DFD03B046
:1001700008BC04B01847C046940B000810B50CF03A
:1001800063F810BD0300C000C0180002704710B52E
:10019000FFF7F8FF303010BD70B5040001F034FFF8
:1001A000050021786368C31804482A00FFF7D4FFCC
:1001B00001222900200000F078F870BDE8C7001087
:1001C00030B583B00400019101F028FF05002178CB
:1001D0006368C31805482A00FFF7BEFF042301AA7D
:1001E0002900200001F022FF03B030BD20C800101C
:1001F0000FB400B583B004AA02CA0192044B1B6875
:10020000D8680BF0E1FC03B008BC04B01847C04646
:10021000940B000804280BD0052804D101394B1E8B
:100220009941C8B27047401A43425841C0B2F9E7F9
:100230000120F7E700280FD0002A03D100207047E3
:1002400001301A00531E002A04D002788A42F7D0E7
:100250000020F4E70120F2E70020F0E770B50C0081
:100260001500002807D002F0D0FE01002A0020006F
:10027000FFF7E0FF70BD0020FCE710B582B00C0076
:1002800000230193C0B201A902F0B2FD002803D0FF
:100290000124200002B010BD0198210001F036FFBA
:1002A0000400019802F0BEFDF3E700B583B013002F
:1002B00001AA1370012301F0B9FE03B000BD0000D4
:1002C00070B5040001F09CFE050021786368C31836
:1002D00004482A00FFF78CFF012229002000FFF7C5
:1002E000E4FF70BD58C80010F0B5C64600B584B034
:1002F00004000E0015000E2A1DD80E2922D8130165
:100300000B430F226A449046137001F082FE0700EF
:1003100021786368C3180F48019500963A00FFF7EB
:1003200067FF012342463900200001F07FFE04B040
:1003300080BCB846F0BD084B084ACD2108484900AA
:100340000BF0F2F9074B054ACD21054849000BF0A7
:10035000EBF9C04608C9001090C80010B0CA0010E0
:10036000A4C80010F4C8001030B587B004000522FE
:10037000002104A80BF076FF0522002102A80BF053
:1003800071FF002C35D1012004A9FFF776FF00286A
:1003900000D092E0002C2ED0FF3002A9FFF76DFFB5
:1003A00001282AD0002800D089E004AB1B78012B5B
:1003B00033D0032B2FD0434A04A94B788C78CD78C7
:1003C0004149424801950094FFF712FF02AB1B78A8
:1003D000012B26D0032B22D03A4A02A94B788C78E5
:1003E000CD783B49394801950094FFF701FF00247F
:1003F00021E0FF20C8E70220CFE736482100FFF7C1
:10040000F7FE02AB03221A70012159709A70DA705C
:1004100000221A71C9E7304ACEE7304ACCE72E4AAB
:10042000DBE72E4AD9E72B79042B28D004AA92784F
:10043000934224D00134022C39D863001B195B008D
:10044000274AD518D05C04AB1978FFF7E3FE0028E3
:10045000F0D0687802AB1978FFF7DCFE0028E9D00D
:10046000AB78042B03D004AAD2789342E2D1EB7884
:10047000042BD8D002AAD2789342DBD1D3E76B7990
:10048000022B07D0032B10D0042B01D0154902E01A
:10049000154900E015491648FFF7AAFE6879831E42
:1004A000DBB2022B07D9FF2005E01249F3E712481F
:1004B000FFF79EFE012007B030BDFF20FBE7FF20C5
:1004C000F9E7C04660C90010F0C9001014CA001056
:1004D00058CA0010A0C900106CC9001064C90010EF
:1004E000D8CA001084C9001098C900107CC9001037
:1004F00080CA001074C9001098CA001070B50600B8
:10050000002915D001204042337843401D090F22B5
:100510001340094C9B001B596B4018091A4092006C
:1005200013595840013901360029EDD1C04370BD3F
:1005300001204042FAE7C046ECCA001070B588B00E
:1005400006000D001100302307AA280009F0FFFA69
:10055000002841D12C68079AA41801AB04AA2100F5
:10056000280009F037FB002839D1059B072B39D12A
:1005700006982A4907220BF067FE002835D1029B16
:10058000082B35D10398264908220BF05DFE002880
:1005900031D10321300009F0F1F900282ED107AA4A
:1005A0002100280009F0FCFA00282AD12A68079BBC
:1005B000D318A34228D135008835A31A290030006A
:1005C00008F05EFD002822D12900300008F0A0FDCF
:1005D00000281FD108B070BD01204042FAE7022078
:1005E0004042F7E703204042F4E703204042F1E7AE
:1005F00004204042EEE704204042EBE70520404261
:10060000E8E706204042E5E707204042E2E708200D
:100610004042DFE709204042DCE7C0462CCB001017
:1006200034CB0010F0B5CE46474680B5AFB081461A
:100630000F0090461E0036AB1B78134CDB001D5993
:100640000295E41863681B68ED1803A80AF044FDDE
:100650002A0002A903A8FFF771FF002810D1009615
:1006600043463A00494603A80AF02CFD040003A8BB
:100670000AF036FD20002FB0C0BCB946B046F0BD30
:1006800001246442F6E7C046DCD70010F0B5CE4640
:10069000474680B5E7B0140099466E9F6F9B984619
:1006A000684609F0C7F90021684609F0C9F9719B4D
:1006B000002B02D0729B002B06DC2289E3689B187A
:1006C0006689F618002513E01A007199684609F04A
:1006D000C5F9F2E723003A002900484602F0A3FBDF
:1006E000002811D122003900684609F0B7F92D1908
:1006F000B54204D2741B4445ECD94446EAE77099EC
:10070000684609F0B7F9002067B0C0BCB946B046EA
:10071000F0BD0000F0B5EFB007000E00202926D193
:100720000024144B1B68A3421CDD08A809F082F9C1
:10073000002108A809F084F90F4BE500E9585B197E
:100740005B681A6808A809F089F9694608A809F0E1
:1007500091F93200390068460BF076FD002803D08D
:100760000134DEE70124644220006FB0F0BD0124B3
:100770006442F9E7D8D70010DCD70010F0B5B9B063
:1007800014001F00654B1B680793419B0493409B1B
:10079000039308AB02933F9B01933E9B00933B0066
:1007A000FFF774FF061E00D099E0429B002B04D097
:1007B000202208A918000BF0CAFD00230093584B13
:1007C0003A00210030A802F00FFA061E00D086E0A1
:1007D000079C01256D4221E001256D421EE00125A7
:1007E0006D421BE0D22302AA944663441B88202B4F
:1007F00000D08AE0379910AA380002F014FB061ED8
:1008000000D072E0202210A908A8FFF7B7FC04006E
:10081000444B1B68834200D069E0013636ABD222DC
:1008200002A98C46624437A930A802F04FFA00288A
:1008300053DB43DC36AB19881029D3D0012925D0EE
:100840002229EBD1002DC7DB374B1B68AB42C6DD3D
:10085000D22302AA944663441B88802B5BD8379925
:1008600010AA380002F0DFFA002845D1D22302AAEC
:10087000944663441B88EDB2009510AA202108A875
:10088000FFF7D0FE079001256D42C7E7D22302AAE9
:10089000944663441B88202B3AD1379910AA38001C
:1008A00002F0C1FA002824D1D22302AA944663445C
:1008B000197810A8FFF72EFF0500AFE773427341C8
:1008C000DBB2002E1BD0174A126807998A4219D052
:1008D000124A126807921E0001E007940600002EDB
:1008E00000D1079E300039B0F0BD0794F7E70790BC
:1008F000F5E707940600F2E707940600EFE7079490
:100900001E00ECE707921E00E9E701267642E9E7C0
:1009100001267642E6E701267642E3E7C00A0008B0
:10092000FFFF0000680F0008D8D7001000207047B4
:10093000036A597811715B6893601060704700001A
:1009400010B502680A4B9A420FD1C2680389D84396
:10095000824202D8D418012000E00020002805D0EF
:100960008B68A34202D8002000E0002010BDC046E2
:100970003DB8F3960020704710B582B0040008001F
:10098000C02292000192012908D0022911D0032926
:1009900012D0072913D1A26E6C3401E0626A2834A8
:1009A00001A902F039FB002801D1019B236002B0AC
:1009B00010BD226D5434F3E7E26D6034F0E701209E
:1009C000F5E7000070B50500006A02F0FEFA041EAB
:1009D00008D0A86D02F0F9FA00280AD0844200D3AA
:1009E000200070BD064B074A32210748FF310AF04C
:1009F0009BFE064B034A36210348FF310AF094FE62
:100A000040CB0010ACD1001050CB001098CB0010A0
:100A100070B504000121FFF7AFFF002802D00125C7
:100A2000280070BD02212000FFF7A6FF002814D186
:100A300007212000FFF7A0FF002801D00125EFE7E4
:100A400003212000FFF798FF051E01D00125E7E7ED
:100A50002000FFF7B7FF6067E2E70925E0E7000045
:100A6000F0B585B005000C0001920023039300202F
:100A700002F0B7FAC0B203A902F0BAF9002806D012
:100A80000127039802F0CEF9380005B0F0BD2C2301
:100A90006343EB181A89DE6896190398042302AAA7
:100AA000310002F0C0F9071E26D12C236343ED1854
:100AB0006C8902AB1A88134B9A420DD0002C1DD1C1
:100AC00002AB1A88104B9A421AD1331902AA5288E3
:100AD0009B18019A1360D4E702AB59888C4201D06D
:100AE0000327CEE789190398042302AA02F09BF991
:100AF0000028E5D00127C4E70127C2E70327C0E7A4
:100B00000327BEE7086900000769000070B505000B
:100B1000806D02F087F9002408E00122121B2C23CB
:100B20005343EB18186A02F07DF90134012CF4D913
:100B300070BDF0B583B004000F00002301930020C6
:100B400002F04FFAC0B201A902F052F9061E1AD102
:100B5000019802F05AFA0500019802F063F92C237B
:100B60007B43E4180023032B05D8E25C954208D1AF
:100B70000133DBB2F7E70123002B07D0300003B0CD
:100B8000F0BD0023F8E701267642F7E7012676421A
:100B9000F4E700000FB400B583B004AA02CA0192C2
:100BA000044B1B68D8680BF00FF803B008BC04B006
:100BB0001847C046940B0008F8B506000D00170052
:100BC0000024012C11DC2C226243B2183B002100CE
:100BD000300000F011FF002801D10134F1E7002CB2
:100BE00004DD002D02D1002000E00020F8BD00004F
:100BF00000B587B0130000220492039202920132E2
:100C0000FF320192044A00920A0000210020FFF7FF
:100C1000B5FD07B000BDC046E4690008F0B585B079
:100C200005000C000192002303932F4B1F68002046
:100C300002F0D7F9C0B203A902F0DAF8002802D016
:100C4000380005B0F0BD039B19782848FFF7A2FFD4
:100C50002C2060432E1821002800FFF76AFF00288F
:100C600002D03369DB0619D52148FFF793FF002C2A
:100C70000CD120482100FFF78DFF0127039802F0D7
:100C8000D1F81D483900FFF785FFD9E71B48FFF76A
:100C900081FF0399280001F09BFBEAE7039A019B7F
:100CA00031002800FFF7A4FF070003993000FFF789
:100CB00047FE002803D0124B1B68BB42DED0002C3D
:100CC00007D1002C0ED10F490F48FFF763FF012712
:100CD000D4E70E48FFF75EFF03988268002102F018
:100CE00030F9EEE70A49EFE7C00A0008B8CB001078
:100CF000E4CB00104CCC001010CD001020CC001024
:100D0000680F0008A4CB0010E4CC0010A0CC0010A9
:100D1000ACCB001070B505000E000020FFF724FBDF
:100D20000400022805D0042803D0032801D02000A5
:100D300070BD320001212800FFF770FF044B1B68D3
:100D40008342F4D0012801D00524F0E70400EEE747
:100D5000680F0008002383718360C360013343710F
:100D600003600371C37170474379012B01D00020E8
:100D700070470368012B01D00020F9E70379012BAC
:100D800001D00020F4E70120F2E7000070B582B046
:100D900005000C000023009301930800FFF7E4FF17
:100DA000002836D02A68254B9A4218D00126764270
:100DB000EA6A224B9A421FD0019B009A934200D9C3
:100DC0000093009BA360009A2100280000F0D0FF50
:100DD0001B4B196800292CDC300002B070BD6A463C
:100DE00000212800FFF73CFE061EE1D0154B164AF5
:100DF000164817490AF098FC01AA01212800FFF7BC
:100E00002FFE061ED8D00F4B0F4A104811490AF08A
:100E10008BFC21000831002001F0C4FA061E02D12B
:100E2000A3680093CFE7074B074A08480A490AF02E
:100E30007BFC0A48FFF7AEFECEE7C0463DB8F3960E
:100E4000E46A000834CD001080D1001050CB0010AF
:100E5000030500001B0500003C0500003CCD001010
:100E600070B504000D00FFF791FF002812D1EB7957
:100E70007022A354033BDBB2012B11D9EB79022B77
:100E800017D0042B15D0032B13D07023E35CFF2B5A
:100E900018D070BD104B114A114812490AF044FC99
:100EA000002000F077FB0028E8D07023FF22E254F6
:100EB000E4E7002000F054FB0028E6D07023FF2276
:100EC000E254E2E70848FFF765FE084B034A04488E
:100ED00007490AF029FCC04634CD001090D100101B
:100EE00050CB00107A06000070CD001080CD0010AD
:100EF0009206000070B504000E0066480021FFF75E
:100F000049FE2000FFF784FD051E09D0C02162487C
:100F10008900FFF73FFE70230122E254012D17D014
:100F2000002200212000FFF747FE05005B482A0051
:100F30000021FFF72FFE002D0BD1200000F0C8FD8F
:100F400000280ED170230122E2545548FFF722FEFB
:100F500070BD54480021FFF71DFE70230122E254AA
:100F6000F6E73000FFF7F6FE3100200001F0E8FA66
:100F7000002827D13000FFF7F7FE01235840C1B207
:100F800032002000FFF718FE050047482A00002124
:100F9000FFF700FE002D1DD13000FFF7E5FE002811
:100FA00032D131002000FFF75BFF002820D1320052
:100FB00000212000FFF700FE00281FD1702301222E
:100FC000E254C2E739480021FFF7E4FD7023012213
:100FD000E254BDE700212000FFF7ABFD0028DBD085
:100FE00030480021FFF7D6FD70230122E254AFE71D
:100FF0002F4B304A304831490AF096FB2C4B2D4A92
:101000002D482F490AF090FB2E48FFF7C3FDF379D6
:10101000012B34D0320001212000FFF7FFFD2A4BC5
:101020001B68834232D070230522E2547023E35CB4
:10103000012B00D089E700212000FFF77AFD050091
:10104000320000212000FFF7E9FD002D04D01E4BE7
:101050001B68834200D178E7E56A32000121200055
:10106000FFF7DCFD194B9D4200D06EE7164B1B6865
:10107000834200D069E770230422E25465E731001F
:101080002000FFF747FE7023E054CFE7F27970238A
:10109000E254CBE784CD0010B8CD001000CE001094
:1010A0000CCF001040CE0010A0CE001070CE00106B
:1010B00034CD00102CD1001050CB0010410700009F
:1010C00047070000D0CE0010680F00083DB8F39627
:1010D00010B501F036FF10BDF8B5DE4657464E4656
:1010E0004546E0B58946924698460A9B9B460B9E2C
:1010F000002512E0134A4346E9182300484601F050
:1011000092FE002819D10F4A5B46E9182300504689
:1011100001F0C1FE002812D12D19B54206D2741B70
:1011200080235B019C42E5D91C00E3E70020F0BC72
:10113000BB46B246A946A046F8BD0120F7E701200C
:10114000F5E7C046E40F0008F0B5C64600B584B028
:1011500007000023039302933E48FFF71BFD3E4820
:10116000FFF718FD03A9012001F042FE00281DD160
:1011700002A9022001F03CFE00281DD1BB6A98465E
:1011800036481900FFF706FD0025002444451FD20C
:101190007B6AE2009B185E68039832002900FFF723
:1011A00097FF00280ED1AD190134EFE72C4B2D4AE3
:1011B0002D482E490AF0B8FA294B2A4A2A482C49C8
:1011C0000AF0B2FA264B274A27482A490AF0ACFA15
:1011D00029482900FFF7DEFC039A029901950023B4
:1011E00000933800FFF778FF041E04D0200004B0FD
:1011F00080BCB846F0BD2148FFF7CCFC3B6D5A6877
:1012000002980021FFF764FF002817D17C6D013C94
:101210001B48FFF7BFFC3A6DE300D318196812684A
:10122000891A5A680298FFF753FF041E0CD10398DD
:1012300001F0F8FD029801F0F5FDD7E7084B094AE7
:10124000094810490AF070FA054B064A06480E494B
:101250000AF06AFA34CF00106CCF001090CF001063
:1012600034CD00105CD1001050CB00106A04000097
:101270006E04000075040000B8CF0010FCCF001011
:1012800020D00010C9040000D104000070B582B065
:1012900004000D0009683148FFF77CFC00212000A4
:1012A000FFF747FC06002A0000212000FFF7B6FCEC
:1012B000002E03D02A4B1B68834239D000230193B0
:1012C00001A9012001F094FD002825D101992A00EF
:1012D000200001F0D3F8002824D1019801F0A2FDEC
:1012E00029002000FFF730FF002826D17023E55C9D
:1012F000EB1EDBB2012B26D9022D03D0042D01D029
:10130000032D07D1002000F02BF9002802D0702314
:10131000FF22E25402B070BD124B134A1348144925
:101320000AF002FA0F4B104A104812490AF0FCF971
:1013300029002000FFF72AFDD6E70A4B0A4A0B488E
:101340000D490AF0F1F9002000F024F90028D3D06B
:101350007023FF22E254FF25D0E7C04644D000109E
:10136000680F000834CD00106CD1001050CB001075
:10137000290600002C06000037060000F0B5C6461E
:1013800000B584B0040088465D4B1E681022002121
:1013900068460AF067FF7822002120000AF062FF09
:1013A000584B6362584B2365584BE365584BA36613
:1013B0000025012D14D82900002001F012FE2C2157
:1013C000694320316118C0B201F012FD002801D13B
:1013D0000135EEE74F4B504A504851490AF0A4F905
:1013E00021005831032001F003FD051E41D14D4875
:1013F000FFF7D0FB69462000FFF77CFD7027E15D19
:101400006B46D9714848FFF7C5FBE35D042B36D81E
:10141000022B43D2012B52D17023E35CFF2B52D01D
:10142000012B06D06A4600212000FFF7C5FB051EF0
:1014300014D16A4600212000FFF7F0FB06003B4B69
:101440001B6883420AD12000FFF794FA051E05D1DC
:1014500000212000FFF76AFA051E3DD02000FFF7AB
:1014600055FB002D00D13500280004B080BCB846E3
:10147000F0BD284B284A29482D490AF055F9052B7B
:101480001DD12C480021FFF785FB002000F082F8D9
:10149000051EC1D07023FF22E254BDE76B46D97907
:1014A0002548FFF777FB69462000FFF7EFFE051E92
:1014B000B2D0184B184A194820490AF035F9702360
:1014C000FF22E254A8E71E48FFF764FB1D4B124AB7
:1014D00012481D490AF028F9236A5A7841460A71D0
:1014E0005B688B600C601022002168460AF0BAFE2F
:1014F000424600212000FFF71BFA0C4B1E68ADE7A7
:10150000C00A0008E41F0008E44F0008E4370008A0
:10151000E467000834CD00104CD1001050CB00100F
:10152000F207000074D00010A0D00010680F00086F
:10153000F7070000ECD00010C4D000103C080000F9
:1015400070CD001080CD00105508000010B50100CE
:10155000024B1800FFF712FF10BDC0466C0F0008C9
:1015600010B582B000230193002809D1012001A900
:1015700001F03EFC002805D00124200002B010BD7F
:10158000FF20F4E70198FEF707FE0400019801F040
:1015900049FCF2E710B584B0040000230393052250
:1015A000002101A80AF05EFE002C09D1012003A948
:1015B00001F01EFC002805D00124200004B010BD5D
:1015C000FF20F4E7039801A900F0A0FD041E0CD150
:1015D00001ABDB78032B03D0039801F023FCECE78D
:1015E0000398FEF76DFE0400F6E70124F4E770B5FA
:1015F0000500836D9E68002001E001391800002974
:1016000006DB6B6ACC001B195B68C3189E42F4D2E0
:101610000131116070BD00000FB400B583B004AAA1
:1016200002CA0192044B1B68D8680AF0CDFA03B0D5
:1016300008BC04B01847C046940B0008F0B5C64675
:1016400000B588B006000F0015001C0000230793AA
:10165000069305930522002103A80AF003FE6B6A96
:10166000F6009E591A68B61A696F8846A86A01384A
:10167000B919C0001B589B1A994203D94346FB1A5B
:10168000984600E0B8462368012B2BD00023A371B5
:1016900007A9012001F0ACFB002829D106A90220EE
:1016A00001F0A6FB00282AD105A9032001F0A0FB28
:1016B00000282BD12379012B2ED02379022B00D1A6
:1016C00095E02379032B00D1D1E0079801F0AAFB24
:1016D000069801F0A7FB059801F0A4FB08B080BCB8
:1016E000B846F0BDB84501D00123D0E70023CEE7CE
:1016F000B34BB44A9921B44889000AF015F8B04BAD
:10170000B04A9A21B04889000AF00EF8AC4BAD4AB5
:10171000AD48AE490AF008F8AD48FFF77DFF0598DF
:1017200082680021FFF7D4FC00281BD12368012B1D
:101730001FD0059A06994346019300230093330076
:101740002800FFF7C9FC00284BD12100280000F039
:10175000ABFC022323710028AFD09E4A13680133EB
:101760001360AAE7964B974A9C219748890009F095
:10177000DBFF05992200280000F080FE00281CD124
:10178000A379002BD5D10799280000F021FE00286D
:101790001AD107992200280000F070FE00281AD103
:1017A0000599280000F014FE0028C2D0844B854A19
:1017B000A3218548890009F0B7FF814B814A9E210A
:1017C0008148890009F0B0FF7D4B7E4AA0217E4808
:1017D000890009F0A9FF7A4B7A4A7B487E4909F0D3
:1017E000A3FF774B774A78487C4909F09DFF06981C
:1017F0003A003100FFF76CFC00281ED1069A0799C9
:1018000043460193009633002800FFF765FC00284B
:101810001AD12368012B02D1A379002B1BD0210000
:10182000280000F041FC03232371002800D148E781
:10183000684A13680133136043E7614B614AA7218B
:101840006148890009F070FF5D4B5E4AA8215E483F
:10185000890009F069FF0699280000F0B9FD002809
:10186000DDD0574B574A58485D4909F05DFF07984E
:101870003A003100FFF72CFC002868D1079A05993F
:1018800043460193009600232800FFF725FC00281B
:1018900063D1A379002B32D0059800F0C4FB03007C
:1018A000686F079A05994000019046440096280009
:1018B000FFF712FC002803D0464A13680133136077
:1018C000059803A900F022FC00284DD103ABDB787A
:1018D000012B50D003AB5978012905D0079800227D
:1018E000FEF702FD002852D1A1680798FEF768FCB8
:1018F000002852D1079800F0C5FB002853D1A679E3
:101900000023A3712100280000F0CEFB23680133DF
:10191000236001232371002803D02E4A136801336A
:101920001360002E00D1D0E60599280000F050FD8C
:1019300000283FD10699280000F04AFD002800D178
:10194000C3E61F4B1F4A2048264909F0EDFE1C4BF9
:101950001C4A1D48244909F0E7FE194B194AAE21DB
:101960001948890009F0E0FE154B164AB1211648C6
:10197000890009F0D9FE0798FEF7A2FC0028A9D03B
:101980000F4B104AB2211048890009F0CDFE0C4BD4
:101990000C4A0D48154909F0C7FE094B094A0A4887
:1019A000134909F0C1FE064B064AB72106488900D3
:1019B00009F0BAFE024B034A03480E4909F0B4FE8F
:1019C00034CD0010F8D30010BCD100106B02000021
:1019D0000CD20010E46A00088302000093020000A9
:1019E000A7020000F5020000B1020000CE020000D4
:1019F000D2020000F2020000F0B583B00D00170023
:101A00001E0000230193002E04D03379022B11D045
:101A1000032B13D0002001F0E4FAC0B201A901F0B9
:101A2000E7F9041E1FD00124019801F0FBF9200002
:101A300003B0F0BD0129EDD10221EBE700290CD163
:101A4000836D9B6832685343C168826B914206D8AC
:101A5000521A9A4205D30221DCE70221DAE7022179
:101A6000D8E70121D6E7019820233A00002101F0B0
:101A7000DAF9002826DB002ED6D03A68134B9A42BA
:101A8000D2D03379012BCFD0019801F0CBF92900C6
:101A9000002001F0A6FAC0B201A901F0A9F9041EC4
:101AA00001D00124C0E7019820233A00002101F071
:101AB000BAF9002808DB3A68044B9A42B4D00124F2
:101AC0006442B1E70124AFE70124ADE73DB8F396E6
:101AD000F0B5DE4657464E464546E0B583B0866AC9
:101AE000436D0193002B11D0C0239B009E4213D85D
:101AF000019A9A4210D8836D9B689A46002500246B
:101B0000002100239846994600222DE03B48002101
:101B1000FFF782FD00200AE03948FFF77DFDC02372
:101B200038489B00019A3100FFF776FD002003B092
:101B3000F0BCBB46B246A946A046F0BD476ABC46CB
:101B4000CF00BB46DC4467467F68BC466344076DF4
:101B5000BC46E700BB46DC4467467F68BC4662443F
:101B60000131013493422DD0B14202D3019FBC42D6
:101B700037D29342E2D012D2476ABC46CF00BB466E
:101B8000DC4467467F68BC466344022D02D00131C5
:101B90000125E7E71C48FFF73FFD0020C7E7076D79
:101BA000BC46E700BB46DC4467467F68BC466244EF
:101BB000012D02D001340225D4E71348FFF72CFD94
:101BC0000020B4E799449044534505D8524503D8C2
:101BD000002500220023C7E70C48FFF71DFD002069
:101BE000A5E7B14203D1BC4201D1C14504D00848A8
:101BF000FFF712FD00209AE7012098E72CD2001091
:101C000054D2001088D20010E0D200101CD3001073
:101C100058D3001070B586B00522002104A80AF040
:101C200021FB0522002102A80AF01CFB02A90120C9
:101C3000FEF723FB002829D104A90320FEF71DFB92
:101C4000051E2AD102AB1B78012B2FD0032B2BD0E2
:101C5000374A02A94B788C78CE78364936480196B7
:101C60000094FFF7D9FC04AB1B78012B22D0032B87
:101C70001ED02F4A04A94B788C78CE782F492E4855
:101C800001960094FFF7C8FC00241FE02C4B2D4A5E
:101C9000C8212D48FF3109F047FD294B294ACC21A5
:101CA0002948FF3109F040FD284AD2E7284AD0E709
:101CB000264ADFE7264ADDE7264900E0264927488D
:101CC000FFF7AAFC30E02649F9E70134032C28D8B5
:101CD000244BA200D05C02AB1978FEF79BFA0028D7
:101CE000F3D0204BA2009B18587804AB1978FEF76C
:101CF00091FA0028E9D01B4BA2009B189B78042B7B
:101D000003D002AA92789342DFD1164BA4001B198C
:101D1000DD78002DD2D0012DD5D0022DCCD01249A6
:101D2000CDE71248FFF778FC280006B070BDC0462A
:101D300060C90010ACD3001014CA0010BCD300104E
:101D400034CD00100CD40010BCD100106CC90010B0
:101D500064C900109CD3001094D30010C4D30010A9
:101D60008CD3001020D4001084C90010DCD30010E4
:101D7000F0B5C64600B582B00600884600240023B0
:101D80000027002101E001310137934201D3A34232
:101D900004D2706ACD00401940681B18944201D3E8
:101DA000A34204D9356DF8002D18686824189342B1
:101DB000E9D39442E7D3A342E5D1022342465371CB
:101DC000002402E001990139013400290FDB01AA46
:101DD0003000FFF70CFC010043461B68013BA342A7
:101DE000F0D8019843463200FFF728FCEAE702B03A
:101DF00080BCB846F0BD00000FB400B583B004AAA3
:101E000002CA0192044B1B68D86809F0DDFE03B0DA
:101E100008BC04B01847C046940B0008F0B5DE4675
:101E200057464E464546E0B585B00500924600232C
:101E3000039302AAD37001784348FFF7DDFF03A99B
:101E4000072000F0D5FF0190002800D078E02B7823
:101E5000032B15D0C0239B009846039801F0D5F8BA
:101E600004008146280000F0DEF8070000940024FA
:101E7000002601235B429B462B004546984613E013
:101E8000023B9846E9E7039800F0CCFF01235B4250
:101E9000019340E0002E06D05B46013303D1A346F8
:101EA00001E0009301260134A54215D94346187874
:101EB000E119012302AA033200F03CFD0028E2DB15
:101EC00002AB03331B784B45E4D0002EE9D05A46D1
:101ED000002A28DC0093E6E70026002E25D15B4689
:101EE000013315D051460831002000F05BFA00287C
:101EF0001FDB009B0133DBB2032B02D901239C467D
:101F0000E344022251464A71524659461160137108
:101F1000039800F087FF019805B0F0BCBB46B246BD
:101F2000A946A046F0BD0093D7E70848FFF764FF35
:101F3000D5E7039800F076FF01235B420193EAE7BF
:101F400001235B420193E6E730D4001068D400100F
:101F50000368013B594308007047012800D17047CE
:101F60000220FCE70FB400B583B004AA02CA0192B4
:101F7000044B1B68D86809F027FE03B008BC04B006
:101F80001847C046940B000810B5054910220AF006
:101F90005BF9002801D0022010BD0120FCE7C046FB
:101FA000C8CA001030B585B004000D001022002111
:101FB00068460AF057F9002C1AD12900012000F0D8
:101FC00017FF041E02D0200005B030BD10236A4662
:101FD0000949012000F0AEFC041E05D1074910227A
:101FE00068460AF031F90400286800F01BFFEAE7B0
:101FF00001246442E7E7C046CC050000C8CA0010CF
:1020000000487047CB05000010B5FFF7F9FF013815
:1020100010BD10B5FFF7F8FF013810BD10B5FFF780
:10202000F8FF043810BD002070470000F8B5040028
:102030000D0017001E00FFF7E7FFA84202D123782A
:10204000012B08D0207833003A00290000F006FC6C
:10205000002810D1F8BD012EF4D10848FFF782FF07
:10206000200000F0CBFC0028ECD00548FFF77AFFF9
:1020700001204042EEE701204042EBE790D40010FF
:10208000C8D4001010B50078054A1023054900F0A7
:10209000E5FB002800D110BD01204042FBE7C0460F
:1020A000C8CA0010CC05000030B583B00C00002376
:1020B00001930B68002B27D08B79002B0CD00320C9
:1020C00001A900F095FE002808D00124019800F035
:1020D000A9FE200003B030BD0120F1E70198FFF711
:1020E000A2FF050001212000FFF732FF2918237904
:1020F0006A4603321370019B1878012300F0AEFB8F
:10210000041EE3D00124E1E70124E2E7F0B5DE4656
:1021100057464E464546E0B589B004000D00002301
:1021200002AAD371029302A9072000F061FE0028E1
:1021300000D017E12078102304AA984900F0FAFB98
:10214000002800DA11E10023002B12D000239B4667
:1021500000930298102204A9FEF780F8002846D0C8
:1021600003232B705B46002B14D1002700239946D4
:1021700044E02278012A03D0022A06D00133E3E7A3
:1021800000239B4601330093E3E701239B46002392
:102190000093DEE7A368102252429146994410232F
:1021A00004AA4946200000F03EFE061E00D0DFE0F3
:1021B000102204A92000FEF751F8002803D00323C1
:1021C0002B7000271AE004A8FFF7DEFEC0B22870CB
:1021D000012804D0002E00DACDE001270EE020789F
:1021E000102304AA6D4900F039FB0600F2E704A8A9
:1021F000FFF7CAFE28700027002399462000FFF74A
:1022000008FF01002078012302AA073200F092FBA8
:10221000002800DAB2E00298012202ABD91DFEF7D5
:102220001DF8002802D16B78042B43D901236B7071
:1022300000232B712000FFF7E7FE01002078AE1C81
:102240000123320000F076FB002800DA99E00298C2
:1022500001223100FEF702F8002834D00323AB70CE
:102260002000FFF7CDFE010001902078EB1C98467E
:102270000123424600F05EFB061E00DA84E002986D
:1022800001224146FDF7EAFF002851D00323EB70FD
:10229000A9784B1E5A425341DBB29A462378032B4E
:1022A00016D05B46002B19D1009B002B13D10126C1
:1022B000764241E002AB07331B780F221A406A7066
:1022C0001B092B71B6E7A878FFF747FEA870C7E790
:1022D0003348FFF747FE5346002B2DD0A368182242
:1022E000524291469944012342464946200000F05B
:1022F0009AFD061E4BD1012241462000FDF7AEFF9C
:10230000002802D00323EB7016E0E878FFF725FEE3
:10231000C0B2E870022803D1002E3BDB00270BE09F
:10232000207801234246019900F098FA0600F3E76D
:10233000E878FFF712FEE870002F04D02378032B13
:1023400001D0002E07D0300009B0F0BCBB46B24629
:10235000A946A046F0BD10224946200000F0F1FD3C
:102360000600F0E701267642EDE701267642EAE72D
:1023700001267642E7E701267642E4E70126764227
:10238000E1E701267642DEE701267642DBE7012619
:102390007642D8E701267642D5E7C046CC05000054
:1023A000E4D4001030B583B00C0001A9FFF7FAFDAA
:1023B000002801D003B030BD019D2800FFF72EFE9C
:1023C000010028780423220000F0B4FAF2E70000AC
:1023D00030B583B00C0009782748FFF7C3FD002310
:1023E000019301A9072000F003FD002831D12378D3
:1023F000032B11D0002100F0F4FD00282CDBC5B226
:102400000121002000F0EDFD002828DBC0B2237878
:10241000AB4201D0834225D1207800F003FA011E9F
:1024200023DBC0220198120100F08BFD051E1FD195
:102430002378032B05D1019800F0F4FC280003B0A9
:1024400030BDA16840394022200000F07AFD05002F
:10245000F1E701256D42F1E701256D42EEE7012527
:102460006D42EBE701256D42E8E701256D42E5E7A6
:1024700001256D42E2E7C04618D5001030B583B0A3
:102480000C00150005220021684609F0EBFE2178BA
:102490002248FFF767FD69460220FDF7EEFE00289F
:1024A00013D1E979012916D16B46DB78012B1ED0B7
:1024B000A9682000FDF784FE002823D12000FFF743
:1024C000E1FD002824D103B030BD154B154A164854
:1024D000164909F029F900222000FDF705FF002820
:1024E000E2D00F4B0F4A1048114909F01DF92000A6
:1024F000FDF7E6FE0028DBD0094B0A4A0A480D49E1
:1025000009F012F9064B074A07480B4909F00CF984
:10251000034B044A0448094909F006F93CD5001068
:1025200064D50010C0D500106CD500106102000009
:10253000650200006A0200006E02000079020000DD
:10254000F0B585B006000D000023039302936A46A0
:10255000D371FFF75FFB041EE8603BD002283CD03C
:1025600001283CD1032703A9380000F041FC0028D2
:1025700038D102A9073000F03BFC002835D1039880
:102580002A003100FFF74AFC041E1DD10398FFF713
:1025900040FD010001236A460732380000F0CAF905
:1025A000061E25DB029801226B46D91DFDF756FE5B
:1025B000002803D06B460122DA7126006B46DA79D7
:1025C0000F231340EB713400039800F02BFC0298AA
:1025D00000F028FC200005B0F0BD0127C3E701246E
:1025E0006442F7E701246442F4E701246442F1E71E
:1025F00001246442EEE70000F0B5DE4657464E4641
:102600004546E0B587B0804600919146039300238C
:10261000059305A9072000F0EBFB051E00D093E011
:1026200000260023019300279B46029319E04948A6
:10263000494BC35C1B06FF225200825C1204134309
:10264000FE22FF32825C120213430831425C1343C4
:102650009A46FDF753FF50452AD001239C46E34498
:102660000136012E3FD87400A4196402444480232B
:10267000384A05989B00210000F0D5FB051E66D165
:10268000344AF823FF33D35C1B06FB214900515C1D
:1026900009040B43F621FF31515C09020B43FA2177
:1026A0004900525C13432D4A9342C0D00137D7E70B
:1026B000284AFC23FF33D35C1B06FD214900515CF3
:1026C00009040B43FA21FF31515C09020B43FC2141
:1026D0004900525C1343019A9A42C1D8039A16608A
:1026E00001930294BCE7022F0FD05B46022B1CD152
:1026F00001256D42059800F095FB280007B0F0BC5D
:10270000BB46B246A946A046F0BD0123039A13601A
:1027100000234A461360059800F077FC0100FA2276
:102720005200009809F09EFDE4E74B46019A1A60BA
:10273000FA2305985B00009A029900F074FB051ECD
:10274000D8D001256D42D5E701256D42D5E7012599
:102750006D42D2E7E86A0008FF010000EFBEADDE7F
:10276000F0B5CE46474680B583B006000D009846CA
:10277000531C99460020019001A9073000F038FB56
:10278000002836D11E4CFA277F003A00414620002F
:1027900009F0DDFDFC235B004A46E250194B1B6843
:1027A000E351083739002000FDF7A8FEE051012D64
:1027B0001DD001356C0064196402A41980220198AF
:1027C0009200210000F0BDFB002815D180230C4AA7
:1027D00001989B00210000F05EFB0400019800F0CE
:1027E00021FB200003B0C0BCB946B046F0BD0025B7
:1027F000E0E701246442F4E701246442F1E7C046C3
:10280000E86A0008D4D5001010B50549102209F077
:102810001BFD002801D0022010BD0120FCE7C046AE
:10282000C8CA001082B0020001AB01211970013149
:102830005970013199700023002004E0C021090182
:102840008C4660440133022B04D801A9C95C914233
:10285000F4D101E00120404202B07047F0B5CE460D
:10286000474680B583B006000F0090461C00002349
:1028700001930093FA214900380008F00BFE0D0087
:10288000FB43A34242D33B19284A934241D830002C
:10289000FFF7C8FF061E3FDBFA214900380008F0A9
:1028A00073FD4002361800270120404203E0220059
:1028B00010E000240025002C33D01D4901AB6A46EE
:1028C0003000FFF799FE002829DBFA235B009C42C9
:1028D000EDD95A1B164B9946280048444346D9194E
:1028E00009F035FD009A01994B463000FFF738FF9B
:1028F000002816D1FA235B009C42DAD3F53CFF3C5A
:102900000C339C466644F537FF37D3E7012040423D
:1029100007E00120404204E00120404201E00120A4
:10292000404203B0C0BCB946B046F0BDDC05000073
:10293000E86C0008F0B5CE46474680B583B0070086
:102940000D0091461C00002301930093FA214900D9
:10295000280008F09FFD0E00EB43A34239D32B194A
:10296000244A934238D83800FFF75CFF071E36DB55
:10297000FA214900280008F007FD40023F18002313
:102980009846002515E02200484640441A4971182F
:1029900009F0DDFCFA235B009C4208D3F53CFF3CC8
:1029A0000C339C4667440C3B9C46E04400E000240A
:1029B0000026002C18D0104901AB6A463800FFF7FA
:1029C0001BFE051E0EDBFA235B009C42DBD99A1B23
:1029D000DAE701256D4207E001256D4204E001259B
:1029E0006D4201E001256D42280003B0C0BCB9462C
:1029F000B046F0BDDC050000E86C0008F0B5CE463E
:102A0000474680B5744CA54406000023829382A9F2
:102A1000072000F0EDF9002806D08B239B009D4491
:102A2000C0BCB946B046F0BD829800F0EEFA019005
:102A30000700829800F0F6F91722002184A809F017
:102A400011FC34783000FFF7E9FA0100172384AA5B
:102A50002000FFF76FFF0028DFD1604802AB9C46E3
:102A60006044FFF7D1FE012800D0ABE00020FDF765
:102A70008EFB0500300000F0A8FA421E80239B0068
:102A80009A4200D3A1E0040000E02418AC42FCD339
:102A900080239B009C4200D99AE0B168091B220068
:102AA000300000F04EFA0028B7D1300000F0ADFA47
:102AB00081464B4B02AA944663441870601B6044E5
:102AC0002A00494609F0CEFB10235B429846A044F9
:102AD000B94509D010220199404802AB9C46604498
:102AE000FDF7A8FB002846D1404602AB9C46604457
:102AF00010223A49614409F02AFC2200183A384B66
:102B000002A98C4663441B78BB423FD084A98979D3
:102B1000B94240D033496144097802A88154012167
:102B20002200203A8154083ABB4239D084A909795D
:102B3000B94237D085A9097802A88154302252427F
:102B40009046A044BB4206D03432019984A8FDF7D8
:102B500071FB00282BD1404602AB9C466044042206
:102B600084A909F0F4FBB168091B230002AA300014
:102B700000F091F951E7404602AB9C466044184B87
:102B800063441978102209F06DFBB6E7154902A8D5
:102B900084466144C0E7124902A884466144BBE709
:102BA00085A9C8E70E4902A884466144C3E74046A8
:102BB00002AB9C4660440A4B63441978042209F036
:102BC00051FBD0E70120404227E70120404224E7A3
:102BD0000120404221E7C046D4FDFFFF0F02000064
:102BE000070200000E020000F0B5D6464F464646EA
:102BF000C0B582B004000D00170099460AAA1378E8
:102C00009A46002842D0002944D0002F46D00E8991
:102C1000CB68F618042301AA3100380000F003F94C
:102C2000804600283ED101AB1A88264B9A421DD01F
:102C30006B89002B3ED101AB1A88234B9A423DD1C0
:102C4000256067604B4623815346A3726B899B19AD
:102C5000E36001AA52889B186361043626614046EE
:102C600002B0E0BCBA46B146A846F0BD6B8901AAE5
:102C700051888B421AD189190423380000F0D3F807
:102C80000028D8D001235B429846E8E701235B4245
:102C90009846E4E701235B429846E0E701235B4264
:102CA0009846DCE701235B429846D8E701235B4264
:102CB0009846D4E701235B429846D0E701235B4264
:102CC0009846CCE70869000007690000F0B583B0BA
:102CD00004000F0015001E00002849D00368002BD7
:102CE0004AD04368002B4AD000294BD0002A1FD17C
:102CF000012040423EE021696068042301AA00F0FF
:102D000092F8002841D1A37A002B03D02269E3680E
:102D10009A423DD223891F4A934217D001AA1288B2
:102D2000934213D001AB58882369C0180430206146
:102D300023696269934219D222685289002ADAD043
:102D4000E2689A42D7D104332361D4E7002E02D03F
:102D500001AB1B883380236904333B6001AB5B8884
:102D60002B8022699B180433236103E0012001E0DA
:102D70000120404203B0F0BD01204042FAE70120AB
:102D80004042F7E701204042F4E701204042F1E7EA
:102D90000120EFE7FFFF00000FB400B583B004AAE5
:102DA00002CA0192044B1B68D86808F00DFF03B0FB
:102DB00008BC04B01847C046940B000810B50029A1
:102DC00010D07F2804D180235B050B60002010BD4C
:102DD000064C80237F2201002000FFF7DDFF012049
:102DE0004042F4E701204042F1E7C046D8D5001048
:102DF00010B500290AD00022094B9400E358002B9B
:102E00000AD01C78844204D00132F5E70120404208
:102E100004E00B60002001E00120404210BDC046EC
:102E2000C40A00087047F0B5C64600B582B0040079
:102E30000D0090461E0000230193002A1BD000289D
:102E40001CD083688B421CD3B3421CD38A19934293
:102E50001BD3407801A9FFF7B1FF071E16D16168A7
:102E6000019BC918491963787F2B0FD13200404666
:102E700009F06DFA0AE001277F4207E001277F424F
:102E800004E0072702E0072700E00727380002B028
:102E900080BCB846F0BDF0B5CE46474680B583B09D
:102EA00007000E001400994600220192002C31D038
:102EB000002836D083688B4235D34B4535D34A46FC
:102EC0008A18934233D3407801A9FFF777FF051E94
:102ED00021D17B68019A9B189846B0447B787F2B60
:102EE00027D14B46DB0526D14346DB05DF0D002B02
:102EF00023D14B465E0AB7420DD22100404603F073
:102F000049FF00281BD180239B009C46E044644479
:102F10000137F0E70125280003B0C0BCB946B04630
:102F2000F0BD0125F7E70725F5E70725F3E70725B6
:102F3000F1E70125EFE70725EDE70725EBE7012599
:102F4000E9E7F0B583B005000F00140000230193FA
:102F500000282FD083688B422FD393422FD38A1817
:102F600093422ED3407801A9FFF728FF061E29D1EE
:102F70006B68019A9B18DB19E4186A787F2A21D1C3
:102F80005D0A6D02640A6402A5420CD0641B640AE7
:102F9000002C17D0013C6002401903F0C1FE00284C
:102FA000F6D001260EE0280003F0BAFE002809D072
:102FB000012607E00126764204E0072602E0072604
:102FC00000E00726300003B0F0BD002804D04378AD
:102FD0007F2B03D0002070470020FCE7802080007A
:102FE000F9E700280AD101290BD002290BD00029CA
:102FF00002D00120404270470130FCE701204042EE
:10300000F9E70220F7E70320F5E743787F2B00D0AC
:10301000FEE7002070470000F8B5CE46474680B571
:1030200089469046002200E001322B4B9100CD589A
:10303000002D02D02B788342F6D1002D3FD04B4695
:10304000002B3FD04346002B3FD0AC686B787F2BE2
:103050000ED00024012630190138310008F094F90F
:10306000C0239B00984200D976006D68002711E0CC
:103070008026B600EFE73100A14200D92100FB0015
:10308000434459601D606D18A14202D8641A01378B
:1030900000E00024002C07D03100280008F0FAF9E5
:1030A0000029E8D0711AE7E74B461B68BB420FD3F3
:1030B0004B461F600020C0BCB946B046F8BD012099
:1030C0004042F8E701204042F5E701204042F2E7A4
:1030D00001204042EFE7C046C40A000810B50A21AB
:1030E000064808F02BF908F047F9054C200003F0DA
:1030F00091FE200003F08EFE10BDC046000063402C
:10310000800432400FB400B583B004AA02CA019211
:10311000044B1B68D86808F057FD03B008BC04B026
:103120001847C046940B000830B583B00400002354
:103130000193002825D0007901A9FFF73FFE002860
:1031400031D1019BA2689B1822681589ED18184897
:10315000FFF7D8FF23681A690C231A4214D11548C7
:103160002900FFF7CFFF207901A9FFF727FE0028EC
:1031700007D1019BA2689B18226812899B189D4267
:1031800006D0002003B030BD0B48FFF7BBFFE6E7D9
:103190000A48FFF7B7FF0A48FFF7B4FFFFF79EFFA3
:1031A000280000F06BF80748FFF7ACFFE9E7C046DE
:1031B00008D6001060D6001034D6001084D6001057
:1031C000A8D60010E8D6001010B584B005F0F0FACB
:1031D00000F0AAF800F0B0F862B605F03FFB032853
:1031E00008D0E120400208F08BF8002805D001BE8D
:1031F00030BFFDE705F03AFBF3E71948FFF782FF20
:103200000C22002101A809F02DF801A8FEF79EF973
:10321000144B1B68834204D01348FFF773FF00244C
:1032200017E01248FFF76EFFFA20000107F080FF59
:10323000002808D101A8FFF777FF041E09D10C4828
:10324000FFF760FF05E00B48FFF75CFF002400E09C
:1032500030BF002CFCD0002005F000F9F9E7C04693
:103260000CD70010680F00089CD7001030D7001052
:1032700060D7001080D7001001BEFDE710B5040034
:10328000830505D103685B0702D14368DB0701D4DE
:10329000FFF7F2FF1A4A1B48121A002108F0E2FF5A
:1032A000194A1A48121A002108F0DCFF184A194876
:1032B000121A002108F0D6FF174A1848121A0021E6
:1032C00008F0D0FF164AAC239B00D450D358A34239
:1032D000DED1144B9C609B68A342D9D1BFF34F8FC2
:1032E000BFF36F8F236883F30888EFF3088293425C
:1032F000CED1BFF34F8FBFF36F8F63689847C7E797
:10330000F00E0008C00A000800F0010898720008DA
:103310000000020800F00108947200084C0F000839
:103320000000214000ED00E010B500220121022044
:1033300004F0A6FB10BD000010B5064A064C0021A3
:10334000200003F02DFE054A0121200003F028FE95
:1033500010BDC04684D8001080043240B8D8001098
:103360007047FFF7FDFF72B60F4C104DAC4209DA03
:1033700021686268A368043B02DBC858D050FAE7B2
:103380000C34F3E70A490B4A0020521A02DD043AD2
:103390008850FCDC084809490860BFF34F8F05F0EE
:1033A00007FAFFF711FFFEE7A4E30010BCE30010EB
:1033B0004C0F000894720008000A000808ED00E0B5
:1033C000FEE7FEE700B504207146084202D0EFF3A5
:1033D000098002E0EFF30880043004F01BFFFEE7F1
:1033E0000230800803D001300238FCD1C046C0460C
:1033F0007047EFF3108072B6704780F31088704703
:103400000300421ED2B2042A05D88000C018C000B2
:10341000024BC01870470020FCE7C04628D90010B6
:10342000F0B5DE4657464E464546E0B583B004004B
:103430000D0090461E00002900D158E2002A00D15C
:1034400066E2002E00D165E20C9B002B00D16AE2FF
:103450000D9B002B00D168E25878FFF7D1FF814621
:10346000002800D163E24768FB1DDB089B46022071
:1034700002F07EFF380002F04FFFBC23E3581B0C24
:103480009B041B0C5B4500D201BE7A1EE0231B028D
:10349000134312220021200002F07EFF4B469A695E
:1034A0003B000E21200003F0CFFA7B1C9A46BC2380
:1034B000E3581B0C9B041B0C3A000832D2089342C1
:1034C00000D201BED0231B023B4312220021200068
:1034D00002F062FF4B46DA6953460D21200003F0EB
:1034E000B3FABC23E3581B0C9B041B0CFA1DD20837
:1034F000934200D201BE7A1E8023DB0113431222C5
:103500000021200002F048FFBC23E3581B0C9B0461
:103510001B0CFA1DD208934200D201BE7A1EA023D2
:10352000DB01134312220021200002F035FF3B0093
:103530002A000421200003F087FA2A005A443B00A5
:103540000521200003F080FA0421200003F0E4FAB2
:1035500000281BD100250E220421200003F003FBCC
:10356000002800D1E34D0521200003F0D5FA002802
:1035700000D0E04D0E220521200003F0F4FA0028CF
:1035800000D1ACE1002D03D0DB4BAAE1D94DE2E73D
:10359000BC23E3581B0C9B041B0CFA1DD20893425E
:1035A00000D201BE7A1EC023DB0113431222002188
:1035B000200002F0F1FEBC23E3581B0C9B041B0C03
:1035C000FA1DD208934200D201BE7A1EE023DB012D
:1035D000134312220021200002F0DEFEBC23E35838
:1035E0001B0C9B041B0CFA1DD208934200D201BE97
:1035F0007A1E90231B02134312220021200002F0A6
:10360000CBFEBC23E3581B0C9B041B0CFA1DD208F9
:10361000934200D201BE7A1EA0231B021343122242
:103620000021200002F0B8FEBC23E3581B0C9B04D1
:103630001B0CFA1DD208934200D201BE7A1EB023A1
:103640001B02134312220021200002F0A5FEBC231E
:10365000E3581B0C9B041B0CFA1DD208934200D2AA
:1036600001BE7A1EC0231B02134312220021200038
:1036700002F092FEC023DB0134220021200002F080
:103680008BFEF600BC23E3581B0C9B041B0CF208BA
:10369000934200D201BE731E80221202934613434E
:1036A00012220021200002F077FE5B463422002126
:1036B000200002F071FE330042460821200003F092
:1036C000C3F90821200003F063FA0821200003F069
:1036D00023FA8046BE4200D9ADE0884B302200215B
:1036E000200002F059FE80235B00132200212000FD
:1036F00002F052FEBC23E3581B0C9B041B0CFA1D6A
:10370000D208934200D201BE7A1E80231B021343CB
:1037100012220021200002F03FFEBC23E3581B0CC4
:103720009B041B0CFA1DD208934200D201BE7B1EE3
:1037300012220021200002F02FFE0E22062120007E
:1037400003F011FA002800D18EE000233522002179
:10375000200002F021FE0097052300220521200011
:1037600002F024F90097052306220621200002F02A
:103770006DF80097052304220721200002F066F867
:103780004B46187B02F0F4FD4B461A693B000E21B4
:10379000200003F059F94B465A6953460D21200089
:1037A00003F052F94B461A6A3B000921200003F04E
:1037B0004BF94B465A6A3B000A21200003F044F9BA
:1037C0000D9B5A683B000B21200003F03DF90D9B37
:1037D0009A683B000C21200003F036F90197082677
:1037E000009606230A220921200002F0C7FD019756
:1037F000009607230C220B21200002F0BFFD434658
:10380000002B41D03E4B30220021200002F0C4FDAD
:1038100080235B0013220021200002F0BDFD042262
:103820000521200003F08BF9002853D001230C9AC6
:103830001370344B55E0F61B330380220021200027
:1038400002F0AAFD8023E358002B06D12E4B0A225A
:103850000021200002F0A0FD3FE72B4B2422002195
:10386000200002F099FD38E7284B3022002120008B
:1038700002F092FD63681B06FCD43B00082206217F
:10388000200001F0EFFE60E70A230C220021200057
:1038900002F04EF809230B220521200002F048F81F
:1038A0000097052300220521200002F07FF83B004D
:1038B00005220521200002F071F8092305220521C7
:1038C000200002F035F80B2305220521200002F02C
:1038D0002FF89DE700230C9A13700A4B01E0054D69
:1038E000054B13220021200002F056FD13E0014D8C
:1038F00011E0C0460B00320030600000086000009C
:103900000B500000F17E0000808000000680000067
:10391000084D00E0074D280003B0F0BCBB46B2469E
:10392000A946A046F0BD034DF5E7024DF3E7024D71
:10393000F1E7C0460B0032000A00320070B5040007
:103940000E00150000231022002102F025FD802327
:103950009B01334300220021200002F01DFDC02303
:103960009B012B4300220021200002F015FDBC2307
:10397000E3581B0C9B041B0C412B00D801BE1E4BB3
:1039800012220021200002F007FD1C4B80220021A2
:10399000200002F001FD8023E358002B24D1184BB6
:1039A0000A220021200002F0F7FC164B36220021EB
:1039B000200002F0F1FC144B3D220021200002F017
:1039C000EBFC124B37220021200002F0E5FC022321
:1039D00013220021200002F0DFFC0023112200212D
:1039E000200002F0D9FC70BD054B242200212000EC
:1039F00002F0D2FCD9E7C046081200000090200077
:103A000030200000232000002E0040002E20300037
:103A100070B504000E00150000231022002102F0F2
:103A2000BBFC80239B01334300220021200002F0D5
:103A3000B3FCC0239B012B4300220021200002F095
:103A4000ABFCBC23E3581B0C9B041B0C412B00D884
:103A500001BE1E4B12220021200002F09DFC1C4BD7
:103A600080220021200002F097FC8023E358002BE5
:103A700024D1184B0A220021200002F08DFC164BA5
:103A800036220021200002F087FC144B3D22002149
:103A9000200002F081FC124B37220021200002F0AE
:103AA0007BFC022313220021200002F075FC00237E
:103AB00011220021200002F06FFC70BD054B242272
:103AC0000021200002F068FCD9E7C046081200007F
:103AD0000090200030200000232000002E00400035
:103AE0002E20300070B504000E00150000231022B7
:103AF000002102F051FC8023DB013343002200212E
:103B0000200002F049FCA023DB012B43002200210E
:103B1000200002F041FCBC23E3581B0C9B041B0C4F
:103B2000202B00D801BE80235B0012220021200040
:103B300002F032FCBC23E3581B0C9B041B0C1F2B14
:103B400000D801BE464B12220021200002F024FCC6
:103B5000444B80220021200002F01EFC424B8022B8
:103B60000021200002F018FC8C23E358002B5AD1CE
:103B70003E4B0A220021200002F00EFC3C4B30227A
:103B80000021200002F008FC14233622002120002E
:103B900002F002FC8823E358002B4BD1354B0A225C
:103BA0000021200002F0F8FB012336220021200032
:103BB00002F0F2FB8C23E358002B42D12E4B0A2259
:103BC0000021200002F0E8FB2C4B362200212000CF
:103BD00002F0E2FB8823E358002B39D1254B0A225F
:103BE0000021200002F0D8FB254B362200212000C6
:103BF00002F0D2FB4E233D220021200002F0CCFB3C
:103C0000204B37220021200002F0C6FB03231322A1
:103C10000021200002F0C0FB00231122002120001F
:103C200002F0BAFB70BD114B24220021200002F0EB
:103C3000B3FBA3E70F4B20220021200002F0ACFBD6
:103C4000B2E70D4B24220021200002F0A5FBBBE7C8
:103C5000084B20220021200002F09EFBC4E7C04652
:103C6000FF1000000000040800000C0C53100000BE
:103C7000054000001210000003100000104000007A
:103C8000414000004E403000F0B587B004000F0006
:103C9000160001AD5E482B0026C826C302681A60D4
:103CA00002791A71002310220021200002F074FB17
:103CB0008023DB013B4300220021200002F06CFB4B
:103CC000A023DB01334300220021200002F064FB2B
:103CD000BC23E3581B0C9B041B0C402B00D801BEDB
:103CE00080239B0012220021200002F055FBBC2300
:103CF000E3581B0C9B041B0C3B2B00D801BE454B0F
:103D000012220021200002F047FBBC23E3581B0CC9
:103D10009B041B0C102B00D801BEC123DB01122217
:103D20000021200002F038FB3B4B802200212000C4
:103D300002F032FB394B80220021200002F02CFBE4
:103D4000812301AA0621200002F07EFE8C23E35885
:103D5000002B4ED1324B0A220021200002F01CFB26
:103D6000304B30220021200002F016FB16233322B4
:103D70000021200002F010FB042336220021200045
:103D800002F00AFB8C23E358002B39D1264B0A2280
:103D90000021200002F000FB8023DB013022002103
:103DA000200002F0F9FA162333220021200002F04D
:103DB000F3FA1E4B36220021200002F0EDFA4E23CA
:103DC0003D220021200002F0E7FA194B37220021A2
:103DD000200002F0E1FA432313220021200002F028
:103DE000DBFA002311220021200002F0D5FA07B0EF
:103DF000F0BD0B4B24220021200002F0CDFAAFE7EA
:103E0000094B24220021200002F0C6FAC4E7C04674
:103E100018DF0010DF110000000006080000180C79
:103E20005310000005400000031000000440000093
:103E30004E40300070B504000E0015000023102223
:103E4000002102F0A9FA8023DB0133430022002184
:103E5000200002F0A1FAA023DB012B430022002165
:103E6000200002F099FABC23E3581B0C9B041B0CA6
:103E7000282B00D801BEA0235B00122200212000C5
:103E800002F08AFABC23E3581B0C9B041B0C272B63
:103E900000D801BE464B12220021200002F07CFA1D
:103EA000444B80220021200002F076FA424B80220F
:103EB0000021200002F070FA8C23E358002B5AD125
:103EC0003E4B0A220021200002F066FA3C4B3022D1
:103ED0000021200002F060FA412337220021200057
:103EE00002F05AFA8823E358002B4BD1354B0A22B3
:103EF0000021200002F050FA012336220021200088
:103F000002F04AFA8C23E358002B42D12E4B0A22AE
:103F10000021200002F040FA2C4B37220021200023
:103F200002F03AFA8823E358002B39D1254B0A22B4
:103F30000021200002F030FA254B3622002120001B
:103F400002F02AFA4E233D220021200002F024FA3A
:103F5000204B37220021200002F01EFA03231322F7
:103F60000021200002F018FA002311220021200075
:103F700002F012FA70BD114B24220021200002F041
:103F80000BFAA3E70F4B20220021200002F004FAD5
:103F9000B2E70D4B24220021200002F0FDF9BBE71F
:103FA000084B20220021200002F0F6F9C4E7C046A9
:103FB0003F1100000000060800000E0C5310000026
:103FC0000540000012100000031000000140000036
:103FD000414000004E40300070B504000E00150056
:103FE00000231022002102F0D7F98023DB013343A4
:103FF00000220021200002F0CFF9A023DB012B4397
:1040000000220021200002F0C7F9BC23E3581B0C5A
:104010009B041B0C0F2B00D801BE5F4B122200210A
:10402000200002F0B9F9BC23E3581B0C9B041B0CC5
:10403000172B00D801BE594B12220021200002F09C
:10404000ABF9C0231B0380220021200002F0A4F959
:104050008023E358002B00D07FE0514B0A2200213F
:10406000200002F099F980231B0380220021200008
:1040700002F092F98023E358002B00D074E08133E2
:104080009B010A220021200002F086F98023DB0236
:1040900080220021200002F07FF98023E358002BCA
:1040A0006AD1C1339B010A220021200002F074F979
:1040B0003C4B36220021200002F06EF93A4E3300CC
:1040C0003D220021200002F067F9384D2B003722F5
:1040D0000021200002F060F9354B3622002120003B
:1040E00002F05AF933003D220021200002F054F979
:1040F0002B0037220021200002F04EF98023E358E4
:10410000002B41D12B4B0A220021200002F044F960
:10411000294B38220021200002F03EF9274B36229D
:104120000021200002F038F91F4B3D220021200021
:1041300002F032F91D4B37220021200002F02CF949
:104140000C2313220021200002F026F90023112263
:104150000021200002F020F970BD114B2422002123
:10416000200002F019F97EE781239B01242200211F
:10417000200002F011F989E7C1239B0120220021D0
:10418000200002F009F993E70A4B202200212000C9
:1041900002F002F9BCE7C0467F200000BF300000FB
:1041A00050400000454000004E0040004E403000AE
:1041B0004340000020300000232000004240000067
:1041C00070B504000E00150000231022002102F03B
:1041D000E3F88023DB01334300220021200002F0BA
:1041E000DBF8A023DB012B4300220021200002F09A
:1041F000D3F8BC23E3581B0C9B041B0C1B2B00D8CF
:1042000001BE694B12220021200002F0C5F8BC2338
:10421000E3581B0C9B041B0C1B2B00D801BE634BEB
:1042200012220021200002F0B7F8BC23E3581B0C37
:104230009B041B0C1B2B00D801BE5D4B12220021DE
:10424000200002F0A9F8E0231B03802200212000B7
:1042500002F0A2F88023E358002B00D086E0554BF3
:104260000A220021200002F097F880231B038022FD
:104270000021200002F090F88023E358002B00D0AA
:104280007BE082335B010A220021200002F084F8E7
:10429000C023DB0280220021200002F07DF8802371
:1042A000E358002B00D070E0434B0A22002120008D
:1042B00002F072F8C023DB0280220021200002F00D
:1042C0006BF88023E358002B66D1C1339B010A228F
:1042D0000021200002F060F8384B36220021200037
:1042E00002F05AF8364B3D220021200002F054F82B
:1042F000344B37220021200002F04EF8324B372297
:104300000021200002F048F8304D2B003622002119
:10431000200002F041F82E4B37220021200002F04D
:104320003BF82B0036220021200002F035F8294B03
:1043300036220021200002F02FF8274B3D220021D9
:10434000200002F029F8254B37220021200002F03E
:1043500023F80E2313220021200002F01DF8002371
:1043600011220021200002F017F870BD114B242209
:104370000021200002F010F877E782235B0124225D
:104380000021200002F008F882E70B4B20220021D8
:10439000200002F001F88DE7C1239B0120220021BB
:1043A000200001F0F9FF97E7DF100000DF20000098
:1043B000DF300000504000001020000025200000E9
:1043C0002E0040002E203000242000002E2040002F
:1043D00021200000234000004E0040004E403000ED
:1043E000F0B5C64600B588B004008846170001AE97
:1043F000DF48143035000EC80EC50EC80EC5036860
:104400002B60002310220021200001F0C5FFC023F3
:104410009B014246134300220021200001F0BCFF13
:104420008023DB013B4300220021200001F0B4FF88
:10443000BC23E3581B0C9B041B0C1B2B00D801BE98
:10444000CC4B12220021200001F0A6FFBC23E35830
:104450001B0C9B041B0C3B2B00D801BEE023FF333D
:1044600012220021200001F097FFBC23E3581B0C0F
:104470009B041B0C1F2B00D801BEBF4B1222002136
:10448000200001F089FF81231B05802200212000EC
:1044900001F082FFE02301AA0521200002F0D4FAF6
:1044A0008823E358002B00D022E1B44B0A220021DC
:1044B000200001F071FFB24B30220021200001F0FA
:1044C0006BFF152333220021200001F065FF032339
:1044D00036220021200001F05FFF8823E358002BE3
:1044E00000D00CE1A74B0A220021200001F054FF6C
:1044F000C0239B0130220021200001F04DFF152335
:1045000033220021200001F047FF0323362200213F
:10451000200001F041FF8823E358002B00D0F5E094
:10452000984B0A220021200001F036FFC0239B0196
:1045300030220021200001F02FFF1523332200211B
:10454000200001F029FF032336220021200001F082
:1045500023FF8823E358002B00D0DEE0894B0A229A
:104560000021200001F018FFC0239B013022002110
:10457000200001F011FF152333220021200001F05B
:104580000BFF032336220021200001F005FF8823C2
:10459000E358002B00D0C7E07A4B0A22002120000C
:1045A00001F0FAFEC0239B0130220021200001F01F
:1045B000F3FE152333220021200001F0EDFE03233A
:1045C00036220021200001F0E7FE8823E358002B6B
:1045D00000D0B0E06B4B0A220021200001F0DCFE8D
:1045E000C0239B0130220021200001F0D5FE1523BD
:1045F00033220021200001F0CFFE032336220021C8
:10460000200001F0C9FE8823E358002B00D099E078
:104610005C4B0A220021200001F0BEFEC0239B015A
:1046200030220021200001F0B7FE152333220021A3
:10463000200001F0B1FE032336220021200001F00A
:10464000ABFE8823E358002B00D082E04D4B0A22BA
:104650000021200001F0A0FEC0239B013022002198
:10466000200001F099FE152333220021200001F0E3
:1046700093FE032336220021200001F08DFE8823C3
:10468000E358002B6CD13F4B0A220021200001F09F
:1046900083FEC0239B0130220021200001F07CFE1C
:1046A000152333220021200001F076FE364B3622FE
:1046B0000021200001F070FE3E233D220021200059
:1046C00001F06AFE314B37220021200001F064FE28
:1046D000232313220021200001F05EFE002311227B
:1046E0000021200001F058FE08B080BCB846F0BDA3
:1046F000224B24220021200001F04EFEDBE6214B5C
:1047000024220021200001F047FEF1E61D4B242267
:104710000021200001F040FE08E71A4B242200216E
:10472000200001F039FE1FE7164B24220021200053
:1047300001F032FE36E7134B24220021200001F065
:104740002BFE4DE70F4B24220021200001F024FE18
:1047500064E70C4B24220021200001F01DFE7BE7C2
:10476000084B24220021200001F016FE91E7C046EC
:1047700018DF0010DF500000FF10000042100000A2
:104780000430000002100000033000003E30300012
:1047900010B50B4B1C78052C05D8A300094CE35829
:1047A0009F46FFF79FF910BDFFF744FBFBE7FFF7BC
:1047B00017FEF8E7FFF768FAF5E7FFF729F9F2E7E0
:1047C000DC6E0008E8DE0010F8B504000E001500ED
:1047D00000231022002101F0DFFD90231B02334350
:1047E00000220021200001F0D7FDA0231B022B4353
:1047F00000220021200001F0CFFDBC23E3581B0C58
:104800009B041B0C2F2B00D801BEF34B122200215E
:10481000200001F0C1FDBC23E3581B0C9B041B0CC2
:104820002F2B00D801BEED4B12220021200001F0F9
:10483000B3FDBC23E3581B0C9B041B0C032B00D8BB
:1048400001BEE74B12220021200001F0A5FD8023CC
:104850009B0280220021200001F09EFDE14B80227E
:104860000021200001F098FDDF4B80220021200074
:1048700001F092FDDD4B80220021200001F08CFD33
:10488000DB4B80220021200001F086FDD94B8022E5
:104890000021200001F080FD9423E358002B00D07C
:1048A000F0E1D54B0A220021200001F075FDD34B29
:1048B00036220021200001F06FFDD14B3D22002166
:1048C000200001F069FDCF4B37220021200001F0CC
:1048D00063FD9023E358002B00D0DAE1CA4B0A2293
:1048E0000021200001F058FDC84B36220021200095
:1048F00001F052FDC24B3D220021200001F04CFD91
:10490000C04B37220021200001F046FD8823E358E8
:10491000002B00D0C4E1BE4B0A220021200001F090
:104920003BFDBC4B36220021200001F035FDB44B8D
:104930003D220021200001F02FFDB24B3722002143
:10494000200001F029FD9023E358002B00D0AEE1B8
:10495000B14B0A220021200001F01EFD8C23E358F8
:10496000002B00D0AAE1AD4B0A220021200001F06B
:1049700013FDA84B36220021200001F00DFDA04BB5
:104980003D220021200001F007FD9E4B372200212F
:10499000200001F001FD8823E358002B00D094E1B2
:1049A0009F4B0A220021200001F0F6FC994B372290
:1049B0000021200001F0F0FC9A4B3622002120005B
:1049C00001F0EAFC8423E358002B00D084E1964BED
:1049D0000A220021200001F0DFFC8E4B362200214C
:1049E000200001F0D9FC864B3D220021200001F07F
:1049F000D3FC844B37220021200001F0CDFC84231E
:104A0000E358002B00D06EE1884B0A2200212000E1
:104A100001F0C2FC7D4B37220021200001F0BCFCDC
:104A2000804B36220021200001F0B6FC8823E35899
:104A3000002B00D05EE17A4B0A220021200001F019
:104A4000ABFC744B36220021200001F0A5FC6C4B1E
:104A50003D220021200001F09FFC6A4B37220021FB
:104A6000200001F099FC8023E358002B00D048E19E
:104A70006F4B0A220021200001F08EFC654F3B00A5
:104A800036220021200001F087FC5D4E33003D22DC
:104A90000021200001F080FC5A4D2B00372200211C
:104AA000200001F079FC3B0036220021200001F0BB
:104AB00073FC33003D220021200001F06DFC2B002F
:104AC00037220021200001F067FC8023E358002BEF
:104AD00000D01DE1E133DB010A220021200001F0BA
:104AE0005BFC4C4B36220021200001F055FC444B6E
:104AF0003D220021200001F04FFC424B37220021D3
:104B0000200001F049FC8423E358002B00D007E18A
:104B1000454B0A220021200001F03EFC3D4B37228C
:104B20000021200001F038FC3E4B362200212000FD
:104B300001F032FC8023E358002B00D0F7E03C4B1F
:104B40000A220021200001F027FC324B37220021ED
:104B5000200001F021FC334B36220021200001F01F
:104B60001BFC8023E358002B00D0E7E0314B0A22E6
:104B70000021200001F010FC264B372200212000EC
:104B800001F00AFC274B36220021200001F004FC32
:104B90008423E358002B00D0D7E0234B0A220021C6
:104BA000200001F0F9FB1B4B36220021200001F010
:104BB000F3FB134B3D220021200001F0EDFB114BD4
:104BC00037220021200001F0E7FB8023E358002B6F
:104BD00000D0C1E030E0C0467F6100007F7100007E
:104BE0001F80000000000404000006080000080CFC
:104BF0000000101000001814A56000006A9000006A
:104C00009E0040009E90300064800000989000005C
:104C100082700000979000006470000073700000C4
:104C2000727000009E904000717000007180000062
:104C300070700000607000004B4B0A2200212000C1
:104C400001F0AAFB494B36220021200001F0A4FB11
:104C5000474B3D220021200001F09EFB454B3722AF
:104C60000021200001F098FBE0235B0013220021CB
:104C7000200001F091FB002311220021200001F00F
:104C80008BFBF8BD3C4B24220021200001F084FB6B
:104C90000DE63A4B24220021200001F07DFB23E6A3
:104CA000374B20220021200001F076FB39E6354BFE
:104CB00024220021200001F06FFB4FE6324B20221E
:104CC0000021200001F068FB53E6304B2422002134
:104CD000200001F061FB69E62D4B24220021200019
:104CE00001F05AFB79E62B4B24220021200001F031
:104CF00053FB8FE6254B20220021200001F04CFBC6
:104D00009FE6194B20220021200001F045FBB5E66B
:104D1000E123DB0120220021200001F03DFBE0E641
:104D20001B4B20220021200001F036FBF6E60E4B43
:104D300020220021200001F02FFB06E7164B202245
:104D40000021200001F028FB16E7114B2022002152
:104D5000200001F021FB26E7034B20220021200048
:104D600001F01AFB6EE7C0467070000097900000DB
:104D70009E0040009E903000A5600000648000000E
:104D80008270000064700000737000007270000098
:104D9000717000007180000060700000F8B50400C0
:104DA0000E00150000231022002101F0F5FAA023C7
:104DB0001B02334300220021200001F0EDFAB02352
:104DC0001B022B4300220021200001F0E5FABC2346
:104DD000E3581B0C9B041B0C1F2B00D801BEEF4B90
:104DE00012220021200001F0D7FABC23E3581B0C4B
:104DF0009B041B0C1F2B00D801BEE94B1222002183
:104E0000200001F0C9FABC23E3581B0C9B041B0CC7
:104E10001F2B00D801BEE34B12220021200001F01D
:104E2000BBFABC23E3581B0C9B041B0C032B00D8C0
:104E300001BEDD4B12220021200001F0ADFABC239F
:104E4000E3581B0C9B041B0C0B2B00D801BED74B4B
:104E500012220021200001F09FFA80235B038022B0
:104E60000021200001F098FAD14B8022002120007F
:104E700001F092FACF4B80220021200001F08CFA41
:104E8000CD4B80220021200001F086FACB4B8022FE
:104E90000021200001F080FA8023E358002B00D08D
:104EA000C6E2C74B0A220021200001F075FA8823D0
:104EB000E358002B00D0C2E2C24B0A22002120009E
:104EC00001F06AFA8423E358002B00D0BEE2BE4B07
:104ED0000A220021200001F05FFA8423E358002B0E
:104EE00000D0BAE2B94B0A220021200001F054FAA6
:104EF0008823E358002B00D0B6E2B54B0A220021EC
:104F0000200001F049FAB34B36220021200001F0C5
:104F100043FAB14B3D220021200001F03DFAAF4B96
:104F200037220021200001F037FA9023E358002BAC
:104F300000D0A0E2AA4B0A220021200001F02CFAA6
:104F4000A84B37220021200001F026FAA64B36227A
:104F50000021200001F020FA8823E358002B00D024
:104F600090E2A24B0A220021200001F015FA9D4F89
:104F70003B0036220021200001F00EFA964E33004D
:104F80003D220021200001F007FA944D2B0037222A
:104F90000021200001F000FA3B0036220021200011
:104FA00001F0FAF933003D220021200001F0F4F96C
:104FB0002B0037220021200001F0EEF98C23E3586A
:104FC000002B00D065E28A4B0A220021200001F06C
:104FD000E3F9844B37220021200001F0DDF9824BF8
:104FE00036220021200001F0D7F98C23E358002B52
:104FF00000D055E27F4B0A220021200001F0CCF9BD
:10500000784B36220021200001F0C6F9724B3D2278
:105010000021200001F0C0F9704B37220021200050
:1050200001F0BAF9744B37220021200001F0B4F9E5
:105030006D4B36220021200001F0AEF98423E358A5
:10504000002B00D033E26D4B0A220021200001F03A
:10505000A3F98C23E358002B00D02FE2684B0A22DF
:105060000021200001F098F95E4B3622002120003B
:1050700001F092F9584B3D220021200001F08CF9FB
:10508000564B37220021200001F086F98423E35893
:10509000002B00D019E25B4B0A220021200001F016
:1050A0007BF9504B37220021200001F075F94E4B5F
:1050B00036220021200001F06FF98423E358002BF1
:1050C00000D009E2504B0A220021200001F064F9CF
:1050D000494B37220021200001F05EF9424B362275
:1050E0000021200001F058F98823E358002B00D05C
:1050F000F9E13E4B0A220021200001F04DF9394B25
:1051000036220021200001F047F9334B3D220021D7
:10511000200001F041F9314B37220021200001F03D
:105120003BF98823E358002B00D0E3E1374B0A22F8
:105130000021200001F030F99023E358002B00D02B
:10514000DFE1274B0A220021200001F025F9254B41
:1051500037220021200001F01FF9234B36220021C5
:10516000200001F019F98423E358002B00D0CFE18F
:10517000274B0A220021200001F00EF98C23E3586E
:10518000002B00D0CBE11E4B0A220021200001F0B1
:1051900003F9144B3722002120003BE0FF500000B0
:1051A000FF600000FF7000001F8000005F900000A3
:1051B000000002040000060800000C0C00000E10A5
:1051C000B050000052A00000A1600000A1800000CB
:1051D000A2A00000AAA00000AE004000AEA03000D7
:1051E00084700000A7A00000AEA040006270000024
:1051F0005370000073700000A6A0000061800000E2
:105200008370000071700000616000005280000037
:105210005180000001F0C0F8E04B36220021200050
:1052200001F0BAF88823E358002B00D07EE1DC4B74
:105230000A220021200001F0AFF8DA4B37220021CA
:10524000200001F0A9F8D54B36220021200001F002
:10525000A3F88423E358002B00D06EE1D24B0A223E
:105260000021200001F098F8CE4B362200212000CA
:1052700001F092F8CD4B3D220021200001F08CF886
:10528000CB4B37220021200001F086F88423E3581D
:10529000002B00D058E1C74B0A220021200001F06A
:1052A0007BF89023E358002B00D054E1C24B0A2234
:1052B0000021200001F070F8C04B372200212000AF
:1052C00001F06AF8B54B36220021200001F064F8A5
:1052D0008823E358002B00D044E1B94B0A22002177
:1052E000200001F059F8B54B37220021200001F0D1
:1052F00053F8AA4B36220021200001F04DF800237C
:1053000080220021200001F047F88023E358002B81
:1053100000D02EE1AB4B0A220021200001F03CF826
:10532000A04B36220021200001F036F89F4B3D2291
:105330000021200001F030F89D4B37220021200091
:1053400001F02AF88823E358002B00D018E19C4B89
:105350000A220021200001F01FF8984B372200217B
:10536000200001F019F88D4B36220021200001F0B9
:1053700013F89023E358002B00D008E1924B0A2247
:105380000021200001F008F88C4B3622002120007B
:1053900001F002F8854B3D220021200000F0FCFFC7
:1053A000834B37220021200000F0F6FF8423E358CE
:1053B000002B00D028E1854B0A220021200000F0BC
:1053C000EBFF7E4B37220021200000F0E5FF734BFE
:1053D00036220021200000F0DFFF8023E358002B5D
:1053E00000D018E17A4B0A220021200000F0D4FFFF
:1053F000724B36220021200000F0CEFF6B4B3D2285
:105400000021200000F0C8FF694B37220021200056
:1054100000F0C2FFF8239B0013220021200000F0BF
:10542000BBFF002311220021200000F0B5FFF8BDD2
:10543000684B24220021200000F0AEFF37E5664BC8
:1054400024220021200000F0A7FF3BE5634B24222B
:105450000021200000F0A0FF3FE5614B2422002145
:10546000200000F099FF43E55E4B20220021200040
:1054700000F092FF47E5504B20220021200000F071
:105480008BFF5DE5584B20220021200000F084FFB7
:105490006DE5564B24220021200000F07DFF98E5A9
:1054A000534B20220021200000F076FFA8E5514B4D
:1054B00024220021200000F06FFFCAE54E4B20227D
:1054C0000021200000F068FFCEE5404B20220021A3
:1054D000200000F061FFE4E5484B24220021200079
:1054E00000F05AFFF4E5404B20220021200000F09C
:1054F00053FF04E6424B24220021200000F04CFF21
:105500001AE62D4B20220021200000F045FF1EE668
:105510003C4B24220021200000F03EFF2EE6364BBB
:1055200020220021200000F037FF32E61C4B24220D
:105530000021200000F030FF7FE61B4B24220021D9
:10554000200000F029FF8FE61A4B242200212000C2
:1055500000F022FFA5E6184B20220021200000F0D9
:105560001BFFA9E6164B20220021200000F014FFAB
:10557000B9E6144B24220021200000F00DFFCFE6F5
:105580000F4B20220021200000F006FFE5E60E4B25
:1055900020220021200000F0FFFEF5E6AEA0400032
:1055A00052900000A9A0000051900000AE00400001
:1055B000AEA030009180000084700000A7A0000021
:1055C0009270000050900000547000007170000054
:1055D000B0700000B050000052A00000A1600000B8
:1055E000A1800000A2A000006270000053700000C3
:1055F0007370000061800000837000006160000033
:105600005280000051800000064B2422002120001F
:1056100000F0C2FED5E6044B24220021200000F059
:10562000BBFEE5E671700000B070000010B50B4BDA
:105630001C78052C05D8A300094CE3589F46FEF7BB
:10564000CBFC10BDFEF7BCFDFBE7FFF7A7FBF8E7BF
:10565000FFF7BAF8F5E7FEF771F9F2E7DC6E00083C
:1056600000DF0010F8B504000F0016001D00002335
:105670001022002100F090FE8023DB013B4300223A
:105680000021200000F088FEC0239B01334300224C
:105690000021200000F080FE6B00BC22A258120CFA
:1056A0009204120CD91DC9088A4200D201BE013BE6
:1056B00080229201134312220021200000F06CFE90
:1056C000BC23E3581B0C9B041B0CEA1DD20893421D
:1056D00000D201BE6A1E80235B0113431222002107
:1056E000200000F059FE2B0380220021200000F052
:1056F00053FE8023E358002B00D079E0444B0A226C
:105700000021200000F048FE424B332200212000FF
:1057100000F042FE8023E358002B00D06FE081337D
:105720005B010A220021200000F036FE3A4B3322B2
:105730000021200000F030FE02231322002120006F
:1057400000F02AFEAE1CBC23E3581B0C9B041B0C70
:105750000935ED08AB4200D201BE721E80235B0109
:10576000134312220021200000F016FEBC23E25851
:10577000120C9204120CF31DDB089A4200D201BEF7
:10578000731E12220021200000F006FE3223372271
:105790000021200000F000FE204B372200212000D5
:1057A00000F0FAFD1E4B03220021200000F0F4FD62
:1057B0001E2337220021200000F0EEFD194B30227D
:1057C0000021200000F0E8FDC1239B0330220021CE
:1057D000200000F0E1FD072313220021200000F04B
:1057E000DBFD002311220021200000F0D5FDF8BDD3
:1057F000074B24220021200000F0CEFD84E7812306
:105800005B0124220021200000F0C6FD8EE7C04687
:10581000304000004D2000001E2000000E1000004F
:10582000100040000140400010B5074C2478002CC7
:1058300004D0012C05D0FFF715FF01E0FFF7F6FEBD
:1058400010BDFEF7A5FFFBE7180B0008F8B5040034
:105850000F0016001D0000231022002100F09CFD07
:1058600080235B013B4300220021200000F094FDD7
:1058700080239B01334300220021200000F08CFD97
:10588000C0239B012B4300220021200000F084FD57
:10589000069B5B00BC22A258120C9204120CD91D6C
:1058A000C9088A4200D201BE013B12220021200019
:1058B00000F072FD232333220021200000F06CFD54
:1058C00063681B06FCD4069B002201212000FFF721
:1058D000ABFF012313220021200000F05DFD002317
:1058E00011220021200000F057FDF8BD70B5050021
:1058F0000C000E031201324313433622002100F044
:105900004BFD2401094B23433D220021280000F0D8
:1059100043FDC0239B03334323430E221343293209
:105920000021280000F038FD70BDC0460E00400088
:1059300070B505000C000E031201324313433722E9
:10594000002100F029FD8023DB033343240123439E
:105950000E22134328320021280000F01DFD70BDE7
:1059600070B506000D00140013003F22002100F066
:1059700013FD220380231B041343240123430E221F
:10598000134328320021300000F006FD2B0323438F
:1059900026220021300000F0FFFC70BD00B583B06E
:1059A00000931300FFF752FF03B000BDF0B5C646E9
:1059B00000B504000E0090461F00069D0023102233
:1059C000002100F0E9FCE023DB0142461343002202
:1059D0000021200000F0E0FC80231B023B4300225A
:1059E0000021200000F0D8FCB0231B02334300222A
:1059F0000021200000F0D0FCBC23E3581B0C9B04CA
:105A00001B0CEA1DD208934200D201BE6A1E9023ED
:105A10001B02134312220021200000F0BDFCBC2316
:105A2000E3581B0C9B041B0CEA1DD208934200D2C6
:105A300001BE6A1EA0231B02134312220021200074
:105A400000F0AAFCBC23E3581B0C9B041B0CEA1DB2
:105A5000D208934200D201BE6B1EC0252D022B43FB
:105A600012220021200000F097FC504B3022002130
:105A7000200000F091FC4E4B30220021200000F06D
:105A80008BFC4C4B30220021200000F085FC2B00C9
:105A900034220021200000F07FFC0AE0464B252242
:105AA0000021200000F078FC0B220B212000FFF7E2
:105AB00057FF9A233D220021200000F06DFC63680F
:105AC0001B06FCD49223DB00E55809233F2200216A
:105AD000200000F061FC63681B06FCD49223DB000D
