:020000041000EA
:1000000000000208130300100D000000750300102B
:1000100000000000000000000000000000000000E0
:10002000000000000000000000000000710300104C
:1000300000000000000000007103001071030010B8
:1000400071030010710300107103001071030010A0
:100050007103001071030010710300107103001090
:100060007103001071030010710300107103001080
:100070007103001071030010710300107103001070
:100080007103001071030010710300107103001060
:100090007103001071030010710300107103001050
:1000A0007103001071030010710300107103001040
:1000B0007103001071030010710300107103001030
:1000C0000448054B10B5834203D0044B002B00D0ED
:1000D000984710BD2005000820050008000000001A
:1000E00006480749091A8B10C90FC91810B54910DD
:1000F00003D0044B002B00D0984710BD200500080A
:10010000200500080000000010B5074C2378002BE4
:1001100009D1FFF7D5FF054B002B02D0044800E0C2
:1001200000BF0123237010BDD405000800000000AB
:1001300090F10010054B10B5002B03D00449054881
:1001400000E000BFFFF7CCFF10BDC046000000007C
:10015000D805000890F1001010B50A21064802F0F9
:10016000D5FE02F0F1FE054C200008F08BFC2000CB
:1001700008F088FC10BDC046000063408004324097
:100180000FB400B583B004AA02CA0192044B1B68E5
:10019000D8680CF0C1F803B008BC04B01847C046DA
:1001A000B401000830B583B0040000230193002897
:1001B00025D0007901A902F063FF002831D1A5689C
:1001C000019BED1823681B89ED181848FFF7D8FF2D
:1001D00023681A690C231A4214D115482900FFF725
:1001E000CFFF207901A902F04BFF002807D1A368B7
:1001F000019A9B18226812899B189D4206D0002004
:1002000003B030BD0B48FFF7BBFFE6E70A48FFF736
:10021000B7FF0A48FFF7B4FFFFF79EFF280003F07F
:10022000C1F80748FFF7ACFFE9E7C04638CF001038
:1002300090CF001064CF0010B4CF0010D8CF0010C2
:10024000FCCF001010B584B00BF08AFA03281FD041
:100250000AF0FCFA0BF022FC62B6E120C00202F0C8
:1002600037FE1C48FFF78CFF1B48FFF789FF0C2265
:10027000002101A80CF09EFB01A801F083F9174BA7
:100280001B68834207D01648FFF77AFF00241CE062
:100290000BF06EFADCE71348FFF772FFFA2000015B
:1002A00002F072FE002808D101A8FFF77BFF041EB0
:1002B0000BD10D48FFF764FF07E00C48FFF760FF24
:1002C000002402E000200AF099FE002CFAD130BF91
:1002D000FBE7C04620D0001034D00010F005000825
:1002E000C4D0001058D0001088D00010A8D0001042
:1002F0000230800803D001300238FCD1C046C0462D
:100300007047EFF3108072B6704780F31088704723
:100310007047FFF7FDFF72B60F4C104DAC4209DA83
:1003200021686268A368043B02DBC858D050FAE732
:100330000C34F3E70A490B4A0020521A02DD043A52
:100340008850FCDC084809490860BFF34F8F0BF068
:10035000ADF9FFF777FFFEE79CF10010B4F1001054
:10036000D4050008FC7200080000000808ED00E059
:10037000FEE7FEE700B504207146084202D0EFF325
:10038000098002E0EFF3088004300AF081FAFEE70A
:100390000FB400B583B004AA02CA0192044B1B68D3
:1003A000D8680BF0B9FF03B008BC04B01847C046CA
:1003B000B401000810B50CF0EFFA10BD0300C00046
:1003C000C018C300C0184001704710B5FFF7F6FF12
:1003D000303010BD70B5040001F032FE0500217808
:1003E0006368C31804482A00FFF7D2FF01222900DE
:1003F000200000F078F870BD00D1001030B583B057
:100400000400019101F026FE050021786368C318FD
:1004100005482A00FFF7BCFF042301AA2900200099
:1004200001F020FE03B030BD38D100100FB400B58C
:1004300083B004AA02CA0192044B1B68D8680BF06F
:100440006BFF03B008BC04B01847C046B4010008F5
:1004500004280BD0052804D101394B1E9941C8B29C
:100460007047401A43425841C0B2F9E70120F7E70C
:1004700000280FD0002A03D10020704701301A0055
:10048000531E002A04D002788A42F7D00020F4E7F5
:100490000120F2E70020F0E770B50C0015000028FD
:1004A00007D002F014FF01002A002000FFF7E0FF50
:1004B00070BD0020FCE710B582B00C000023019352
:1004C000C0B201A902F0F6FD002803D001242000EB
:1004D00002B010BD0198210001F034FE0400019823
:1004E00002F002FEF3E700B583B0130001AA137017
:1004F000012301F0B7FD03B000BD000070B504009A
:1005000001F09AFD050021786368C31804482A00A9
:10051000FFF78CFF012229002000FFF7E4FF70BDE8
:1005200070D10010F0B5C64600B584B004000E00CE
:1005300015000E2A1DD80E2922D813010B430F22B5
:100540006A449046137001F080FD070021786368CB
:10055000C3180F48019500963A00FFF767FF012383
:1005600042463900200001F07DFD04B080BCB84651
:10057000F0BD084B084ACD21084849000BF07CFC2F
:10058000074B054ACD21054849000BF075FCC046D4
:100590001CD20010A8D10010C4D30010BCD1001090
:1005A00008D2001030B587B004000522002104A84D
:1005B0000CF000FA0522002102A80CF0FBF9002C37
:1005C00035D1012004A9FFF776FF002800D092E082
:1005D000002C2ED0FF3002A9FFF76DFF01282AD092
:1005E000002800D089E004AB1B78012B33D0032B0B
:1005F0002FD0434A04A94B788C78CD7841494248A2
:1006000001950094FFF712FF02AB1B78012B26D057
:10061000032B22D03A4A02A94B788C78CD783B49FB
:10062000394801950094FFF701FF002421E0FF20E5
:10063000C8E70220CFE736482100FFF7F7FE02ABFC
:1006400003221A70012159709A70DA7000221A710F
:10065000C9E7304ACEE7304ACCE72E4ADBE72E4ADC
:10066000D9E72B79042B28D004AA9278934224D07E
:100670000134022C39D863001B195B00274AD518B6
:10068000D05C04AB1978FFF7E3FE0028F0D068785F
:1006900002AB1978FFF7DCFE0028E9D0AB78042B19
:1006A00003D004AAD2789342E2D1EB78042BD8D0BD
:1006B00002AAD2789342DBD1D3E76B79022B07D021
:1006C000032B10D0042B01D0154902E0154900E09E
:1006D00015491648FFF7AAFE6879831EDBB2022B84
:1006E00007D9FF2005E01249F3E71248FFF79EFE05
:1006F000012007B030BDFF20FBE7FF20F9E7C0462F
:1007000074D2001004D3001028D300106CD3001052
:10071000B4D2001080D2001078D20010ECD30010B8
:1007200098D20010ACD2001090D2001094D30010D8
:1007300088D20010ACD3001070B50600002915D087
:1007400001204042337843401D090F221340094CD9
:100750009B001B596B4018091A40920013595840CE
:10076000013901360029EDD1C04370BD012040425E
:10077000FAE7C04600D4001030B589B00400302339
:1007800007AA02F0CFFE00282ED12568079BED189E
:1007900001AB04AA2900200002F007FF002826D19F
:1007A000059B072B26D106981D4907220CF0F4F86B
:1007B000002822D1029B082B22D103981949082234
:1007C0000CF0EAF800281ED107AA2900200002F048
:1007D000D2FE00281AD12368079A9B18AB4218D181
:1007E000412A19D109B030BD01204042FAE7022068
:1007F0004042F7E703204042F4E703204042F1E79C
:1008000004204042EEE704204042EBE7062040424D
:10081000E8E707204042E5E708204042E2E7C0461B
:1008200040D4001048D40010F0B5CE46474680B5FD
:10083000AFB080460F0091461E0036AB1B78264DA8
:10084000DB005C590294ED186B681B68E41821000A
:1008500002A8FFF791FF002838D1202F39D103A833
:1008600004F05EFD029D641B032103A806F020FD39
:1008700000281FD123002A0025A903A806F08EF81E
:1008800000281AD125A903A806F0D0F8002817D10E
:1008900000964B462022414603A804F037FD041E73
:1008A00011D103A804F040FD20002FB0C0BCB94610
:1008B000B046F0BD01246442F3E701246442F0E74E
:1008C00001246442EDE701246442EAE70124644222
:1008D000EAE701246442E7E7C4DD0010F0B5CE4644
:1008E000474680B59DB014009946249F259B9846A5
:1008F00001A806F047FD002101A806F049FD279B4D
:10090000002B02D0289B002B06DC2289E3689B1871
:100910006689F618002513E01A00279901A807F048
:100920002BFCF2E723003A002900484602F0DDFBE9
:10093000002811D12200390001A807F01DFC2D1953
:10094000B54204D2741B4445ECD94446EAE72699E3
:1009500001A807F05BFC00201DB0C0BCB946B04642
:10096000F0BD0000F0B5A5B007000E00202926D18B
:100970000024144B1B68A3421CDD09A806F002FDED
:10098000002109A806F004FD0F4BE500E9585B19AA
:100990005B681A6809A807F0EFFB01A909A807F02E
:1009A00035FC3200390001A80BF0F6FF002803D017
:1009B0000134DEE701246442200025B0F0BD0124AB
:1009C0006442F9E7C0DD0010C4DD0010F0B5B9B035
:1009D00014001F00654B1B680793419B0493409BC9
:1009E000039308AB02933F9B01933E9B00933B0014
:1009F000FFF774FF061E00D099E0429B002B04D045
:100A0000202208A918000CF04AF800230093584B44
:100A10003A00210030A802F003F9061E00D086E05B
:100A2000079C01256D4221E001256D421EE0012554
:100A30006D421BE0D22302AA944663441B88202BFC
:100A400000D08AE0379910AA380002F04EFB061E4B
:100A500000D072E0202210A908A8FFF7ABFC040028
:100A6000444B1B68834200D069E0013636ABD2228A
:100A700002A98C46624437A930A802F045F9002843
:100A800053DB43DC36AB19881029D3D0012925D09C
:100A90002229EBD1002DC7DB374B1B68AB42C6DDEB
:100AA000D22302AA944663441B88802B5BD83799D3
:100AB00010AA380002F019FB002845D1D22302AA5F
:100AC000944663441B88EDB2009510AA202108A823
:100AD000FFF7AAFE079001256D42C7E7D22302AABD
:100AE000944663441B88202B3AD1379910AA3800CA
:100AF00002F0FBFA002824D1D22302AA94466344D0
:100B0000197810A8FFF72EFF0500AFE77342734175
:100B1000DBB2002E1BD0174A126807998A4219D0FF
:100B2000124A126807921E0001E007940600002E88
:100B300000D1079E300039B0F0BD0794F7E7079069
:100B4000F5E707940600F2E707940600EFE707943D
:100B50001E00ECE707921E00E9E701267642E9E76E
:100B600001267642E6E701267642E3E7C000000868
:100B7000FFFF0000F0050008C0DD001000207047F6
:100B8000036A5B781371036A5B6893601060704757
:100B900010B502680A4B9A420FD1C2680389D84344
:100BA000824202D8D418012000E00020002805D09D
:100BB0008B68A34202D8002000E0002010BDC04690
:100BC0003DB8F3960020704710B582B004000800CD
:100BD000D82292000192012908D0022911D00329BC
:100BE00012D0072913D1A26E6C3401E0626A283456
:100BF00001A902F073FB002801D1019B236002B020
:100C000010BD226D5434F3E7E26D6034F0E701204B
:100C1000F5E7000070B50500006A02F038FB041E1D
:100C200008D0A86D02F033FB00280AD0844200D31C
:100C3000200070BD064B074A32210748FF310BF0F8
:100C40001BF9064B034A36210348FF310BF014F918
:100C500054D400107CD9001064D40010A8D4001023
:100C600070B504000121FFF7AFFF002802D0012575
:100C7000280070BD02212000FFF7A6FF002814D134
:100C800007212000FFF7A0FF002801D00125EFE792
:100C900003212000FFF798FF051E01D00125E7E79B
:100CA0002000FFF7B7FF6067E2E70925E0E70000F3
:100CB000F0B585B005000C000192002303930020DD
:100CC00002F0F1FAC0B203A902F0F4F9002806D04C
:100CD0000127039802F008FA380005B0F0BD2C2374
:100CE0006343EB181A89DE6896190398042302AA55
:100CF000310002F0FAF9071E26D12C236343ED18C8
:100D00006C8902AB1A88134B9A420DD0002C1DD16E
:100D100002AB1A88104B9A421AD1331902AA528890
:100D20009B18019A1360D4E702AB59888C4201D01A
:100D30000327CEE789190398042302AA02F0D5F904
:100D40000028E5D00127C4E70127C2E70327C0E751
:100D50000327BEE7086900000769000070B50500B9
:100D6000806D02F0C1F9002408E00122121B2C233F
:100D70005343EB18186A02F0B7F90134012CF4D987
:100D800070BD00000FB400B583B004AA02CA01927E
:100D9000044B1B68D8680BF0BFFA03B008BC04B062
:100DA0001847C046B4010008F8B506000D0017004A
:100DB0000024012C11DC2C226243B2183B002100DC
:100DC000300000F035FE002801D10134F1E7002C9D
:100DD00004DD002D02D1002000E00020F8BDF0B5B8
:100DE00083B004000F0000230193002002F05BFA9F
:100DF000C0B201A902F05EF9061E1AD1019802F0F4
:100E000066FA0500019802F06FF92C237B43E41881
:100E10000023032B05D8E25C954208D10133DBB2F5
:100E2000F7E70123002B07D0300003B0F0BD00230B
:100E3000F8E701267642F7E701267642F4E700005C
:100E400000B587B01300002204920392029201328F
:100E5000FF320192044A00920A0000210020FFF7AD
:100E6000B5FD07B000BDC0466C690008F0B585B09F
:100E700005000C000192002303932F4B1F680020F4
:100E800002F011FAC0B203A902F014F9002802D04E
:100E9000380005B0F0BD039B19782848FFF772FFB2
:100EA0002C2060432E1821002800FFF798FF00280F
:100EB00002D03369DB0619D52148FFF763FF002C08
:100EC0000CD120482100FFF75DFF0127039802F0B5
:100ED0000BF91D483900FFF755FFD9E71B48FFF70D
:100EE00051FF0399280001F08FFAEAE7039A019B6A
:100EF00031002800FFF7A4FF070003993000FFF737
:100F000047FE002803D0124B1B68BB42DED0002CEA
:100F100007D1002C0ED10F490F48FFF733FF0127EF
:100F2000D4E70E48FFF72EFF03988268002102F0F5
:100F30006AF9EEE70A49EFE7C0000008C8D40010DC
:100F4000F4D400105CD5001020D6001030D500106D
:100F5000F0050008B4D40010F4D50010B0D500108E
:100F6000BCD4001070B505000E000020FFF71AFB7E
:100F70000400022805D0042803D0032801D0200053
:100F800070BD320001212800FFF770FF044B1B6881
:100F90008342F4D0012801D00524F0E70400EEE7F5
:100FA000F0050008002383718360C360013343713F
:100FB00003600371C37170474379012B01D0002096
:100FC00070470368012B01D00020F9E70379012B5A
:100FD00001D00020F4E70120F2E7000070B582B0F4
:100FE00005000C000023009301930800FFF7E4FFC5
:100FF000002836D02A68254B9A4218D0012676421E
:10100000EA6A224B9A421FD0019B009A934200D970
:101010000093009BA360009A2100280000F0C4FE0A
:101020001B4B196800292CDC300002B070BD6A46E9
:1010300000212800FFF73CFE061EE1D0154B164AA2
:10104000164817490AF018FF01AA01212800FFF7E6
:101050002FFE061ED8D00F4B0F4A104811490AF038
:101060000BFF21000831002001F0B8F9061E02D163
:10107000A3680093CFE7074B074A08480A490AF0DC
:10108000FBFE0A48FFF77EFECEE7C0463DB8F3966A
:101090006C6A000844D6001050D9001064D40010C7
:1010A000030500001B0500003C0500004CD60010A5
:1010B00070B504000D00FFF791FF002812D1EB7905
:1010C0007022A354033BDBB2012B11D9EB79022B25
:1010D00017D0042B15D0032B13D07023E35CFF2B08
:1010E00018D070BD104B114A114812490AF0C4FEC5
:1010F000002000F06BFA0028E8D07023FF22E254B1
:10110000E4E7002000F048FA0028E6D07023FF2230
:10111000E254E2E70848FFF735FE084B034A04486B
:1011200007490AF0A9FEC04644D6001060D9001055
:1011300064D400107A06000080D6001090D600100B
:101140009206000070B504000D0009681648FFF70C
:1011500019FE29002000FFF741FF002814D1702359
:10116000E55CEB1EDBB2012B14D9022D03D0042D5C
:1011700001D0032D07D1002000F00EFA002802D084
:101180007023FF22E25470BD084B094A09480A49FE
:101190000AF072FE002000F019FA0028E5D0702352
:1011A000FF22E254FF25E2E794D6001044D6001057
:1011B0003CD9001064D400103706000070B504005C
:1011C0000E004F480021FFF7DDFD2000FFF748FD2E
:1011D000051E09D0D8214B488900FFF7D3FD7023A5
:1011E0000122E254012D17D0002200212000FFF738
:1011F000DBFD050044482A000021FFF7C3FD002D58
:101200000BD1200000F080FC00280ED170230122B9
:10121000E2543E48FFF7B6FD70BD3D480021FFF7A0
:10122000B1FD70230122E254F6E73000FFF7BAFE69
:101230003100200001F0A0F9002827D13000FFF78D
:10124000BBFE01235840C1B232002000FFF7ACFDC5
:10125000050030482A000021FFF794FD002D1DD124
:101260003000FFF7A9FE00282CD131002000FFF745
:101270001FFF00281AD1320000212000FFF794FD43
:10128000002819D170230122E254C2E7224800212C
:10129000FFF778FD70230122E254BDE71C480021CE
:1012A000FFF770FD70230122E254B5E71B4B1C4A87
:1012B0001C481D490AF0E0FD184B194A19481B4902
:1012C0000AF0DAFD1A48FFF75DFDF379012B0CD027
:1012D000320001212000FFF7C9FD164B1B68834235
:1012E0000AD070230522E25493E731002000FFF773
:1012F00039FE7023E0548CE7F2797023E25488E7DA
:10130000C4D60010F8D6001040D700104CD80010FA
:1013100080D70010E0D70010B0D7001044D60010DE
:101320008CD9001064D4001041070000470700006A
:1013300010D80010F005000810B501F064FF10BDD2
:10134000F8B5DE4657464E464546E0B589469246D4
:1013500098460A9B9B460B9E002512E0134A434683
:10136000E9182300484601F0C0FE002819D10F4AB1
:101370005B46E9182300504601F0EFFE002812D129
:101380002D19B54206D2741B80235B019C42E5D91E
:101390001C00E3E70020F0BCBB46B246A946A046CD
:1013A000F8BD0120F7E70120F5E7C0466C0600080C
:1013B000F0B5C64600B584B0040088465E4B1E6892
:1013C0001022002168460BF0F5FA78220021200057
:1013D0000BF0F0FA594B6362594B2365594BE365A7
:1013E000594BA3660025012D14D82900002001F0D7
:1013F0005AFF2C21694320316118C0B201F05AFE16
:10140000002801D10135EEE7504B514A514852496D
:101410000AF032FD21005831032001F04BFE051E79
:1014200041D14E48FFF7AEFC69462000FFF7C6FEEB
:101430007027E15D6B46D9714948FFF7A3FCE35D76
:10144000042B36D8022B43D2012B52D17023E35CFC
:10145000FF2B52D0012B06D06A4600212000FFF757
:10146000A3FC051E14D16A4600212000FFF7FEFCF4
:1014700006003C4B1B6883420AD12000FFF7A2FB09
:10148000051E05D100212000FFF778FB051E3DD089
:101490002000FFF763FC002D00D13500280004B0C8
:1014A00080BCB846F0BD294B294A2A482E490AF08B
:1014B000E3FC052B1DD12D480021FFF763FC002024
:1014C00000F084F8051EC1D07023FF22E254BDE76E
:1014D0006B46D9792648FFF755FC69462000FFF78F
:1014E00031FE051EB2D0194B194A1A4821490AF09B
:1014F000C3FC7023FF22E254A8E71F48FFF742FC19
:101500001E4B134A13481E490AF0B6FC236A5B7847
:1015100042461371236A5B689360146010220021B5
:1015200068460BF047FA424600212000FFF728FBEF
:101530000C4B1E68ACE7C046C00000086C160008E3
:101540006C4C00086C3100086C67000844D6001031
:101550002CD9001064D40010F207000074D80010D9
:10156000A0D80010F0050008F7070000ECD8001024
:10157000C4D800103C08000080D6001090D600109F
:101580005508000010B50100024B1800FFF710FFCE
:1015900010BDC046F405000810B582B000230193C9
:1015A000002809D1012001A901F084FD002805D0FF
:1015B0000124200002B010BDFF20F4E70198FEF7DF
:1015C00009FF0400019801F08FFDF2E710B584B027
:1015D0000400002303930522002101A80BF0EAF97F
:1015E000002C09D1012003A901F064FD002805D0D9
:1015F0000124200004B010BDFF20F4E7039801A9E6
:1016000000F0A0FD041E0CD101ABDB78032B03D04E
:10161000039801F069FDECE70398FEF76FFF040003
:10162000F6E70124F4E770B50500836D9E6800209D
:1016300001E001391800002906DB6B6ACC001B1998
:101640005B68C3189E42F4D20131116070BD000086
:101650000FB400B583B004AA02CA0192044B1B6800
:10166000D8680AF059FE03B008BC04B01847C04659
:10167000B4010008F0B5C64600B588B006000F00FA
:1016800015001C00002307930693059305220021F3
:1016900003A80BF08FF96B6AF6009E591A68B61A08
:1016A000696F8846A86A0138B919C0001B589B1A8F
:1016B000994203D94346FB1A984600E0B84623688E
:1016C000012B2BD00023A37107A9012001F0F2FC0C
:1016D000002829D106A9022001F0ECFC00282AD11B
:1016E00005A9032001F0E6FC00282BD12379012B6A
:1016F0002ED02379022B00D195E02379032B00D142
:10170000D1E0079801F0F0FC069801F0EDFC059897
:1017100001F0EAFC08B080BCB846F0BDB84501D085
:101720000123D0E70023CEE7B34BB44A9921B44854
:1017300089000AF0A1FBB04BB04A9A21B048890059
:101740000AF09AFBAC4BAD4AAD48AE490AF094FBA7
:10175000AD48FFF77DFF059882680021FFF7ECFD9B
:1017600000281BD12368012B1FD0059A06994346F8
:1017700001930023009333002800FFF7E1FD0028C8
:101780004BD12100280000F0ABFC0223237100287C
:10179000AFD09E4A136801331360AAE7964B974A6D
:1017A0009C21974889000AF067FB059922002800D0
:1017B00000F080FE00281CD1A379002BD5D1079919
:1017C000280000F021FE00281AD1079922002800E5
:1017D00000F070FE00281AD10599280000F014FED0
:1017E0000028C2D0844B854AA321854889000AF08D
:1017F00043FB814B814A9E21814889000AF03CFBD2
:101800007D4B7E4AA0217E4889000AF035FB7A4B49
:101810007A4A7B487E490AF02FFB774B774A784813
:101820007C490AF029FB06983A003100FFF784FD55
:1018300000281ED1069A079943460193009633006B
:101840002800FFF77DFD00281AD12368012B02D163
:10185000A379002B1BD02100280000F041FC0323BA
:101860002371002800D148E7684A136801331360E8
:1018700043E7614B614AA721614889000AF0FCFAFD
:101880005D4B5E4AA8215E4889000AF0F5FA069988
:10189000280000F0B9FD0028DDD0574B574A5848C2
:1018A0005D490AF0E9FA07983A003100FFF744FD74
:1018B000002868D1079A05994346019300960023B2
:1018C0002800FFF73DFD002863D1A379002B32D01B
:1018D000059800F0C4FB0300686F079A0599400063
:1018E0000190464400962800FFF72AFD002803D007
:1018F000464A136801331360059803A900F022FCDF
:1019000000284DD103ABDB78012B50D003AB5978C5
:10191000012905D007980022FEF704FE002852D1C5
:10192000A1680798FEF76AFD002852D1079800F0D9
:10193000C5FB002853D1A6790023A37121002800FC
:1019400000F0CEFB236801332360012323710028BC
:1019500003D02E4A136801331360002E00D1D0E665
:101960000599280000F050FD00283FD10699280075
:1019700000F04AFD002800D1C3E61F4B1F4A204853
:1019800026490AF079FA1C4B1C4A1D4824490AF0E2
:1019900073FA194B194AAE21194889000AF06CFAFA
:1019A000154B164AB121164889000AF065FA0798C6
:1019B000FEF7A4FD0028A9D00F4B104AB221104811
:1019C00089000AF059FA0C4B0C4A0D4815490AF0E7
:1019D00053FA094B094A0A4813490AF04DFA064BD3
:1019E000064AB721064889000AF046FA024B034A24
:1019F00003480E490AF040FA44D60010E4DB001018
:101A0000ACD900106B020000F8D900106C6A000815
:101A10008302000093020000A7020000F50200000C
:101A2000B1020000CE020000D2020000F20200006B
:101A3000F0B583B00D0017001E0000230193002EA7
:101A400004D03379022B11D0032B13D0002001F0E6
:101A50002AFCC0B201A901F02DFB041E1FD00124F5
:101A6000019801F041FB200003B0F0BD0129EDD148
:101A70000221EBE700290CD1836D9B683268534348
:101A8000C168826B914206D8521A9A4205D302214C
:101A9000DCE70221DAE70221D8E70121D6E7019845
:101AA00020233A00002101F020FB002826DB002E35
:101AB000D6D03A68134B9A42D2D03379012BCFD08B
:101AC000019801F011FB2900002001F0ECFBC0B2ED
:101AD00001A901F0EFFA041E01D00124C0E701982A
:101AE00020233A00002101F000FB002808DB3A68BF
:101AF000044B9A42B4D001246442B1E70124AFE719
:101B00000124ADE73DB8F396F0B5DE4657464E46A4
:101B10004546E0B583B0866A436D0193002B11D032
:101B2000D8239B009E4213D8019A9A4210D8836D05
:101B30009B689A4600250024002100239846994678
:101B400000222DE03B480021FFF782FD00200AE043
:101B50003948FFF77DFDD82338489B00019A3100B2
:101B6000FFF776FD002003B0F0BCBB46B246A946A5
:101B7000A046F0BD476ABC46CF00BB46DC44674682
:101B80007F68BC466344076DBC46E700BB46DC4447
:101B900067467F68BC4662440131013493422DD0D0
:101BA000B14202D3019FBC4237D29342E2D012D25B
:101BB000476ABC46CF00BB46DC4467467F68BC46EC
:101BC0006344022D02D001310125E7E71C48FFF7ED
:101BD0003FFD0020C7E7076DBC46E700BB46DC447D
:101BE00067467F68BC466244012D02D0013402255D
:101BF000D4E71348FFF72CFD0020B4E79944904444
:101C0000534505D8524503D8002500220023C7E7D5
:101C10000C48FFF71DFD0020A5E7B14203D1BC42EF
:101C200001D1C14504D00848FFF712FD00209AE712
:101C3000012098E718DA001040DA001074DA00107A
:101C4000CCDA001008DB001044DB001070B586B061
:101C50000522002104A80AF0ADFE0522002102A8F9
:101C60000AF0A8FE02A90120FEF725FC002829D1D0
:101C700004A90320FEF71FFC051E2AD102AB1B7826
:101C8000012B2FD0032B2BD0374A02A94B788C780D
:101C9000CE783649364801960094FFF7D9FC04AB5C
:101CA0001B78012B22D0032B1ED02F4A04A94B787E
:101CB0008C78CE782F492E4801960094FFF7C8FC07
:101CC00000241FE02C4B2D4AC8212D48FF310AF07B
:101CD000D3F8294B294ACC212948FF310AF0CCF806
:101CE000284AD2E7284AD0E7264ADFE7264ADDE736
:101CF000264900E026492748FFF7AAFC30E026499C
:101D0000F9E70134032C28D8244BA200D05C02ABA5
:101D10001978FEF79DFB0028F3D0204BA2009B18FA
:101D2000587804AB1978FEF793FB0028E9D01B4BD9
:101D3000A2009B189B78042B03D002AA92789342AE
:101D4000DFD1164BA4001B19DD78002DD2D0012D58
:101D5000D5D0022DCCD01249CDE71248FFF778FC40
:101D6000280006B070BDC04674D2001098DB001089
:101D700028D30010A8DB001044D60010F8DB0010B8
:101D8000ACD9001080D2001078D2001088DB00108F
:101D900080DB0010B0DB001078DB00100CDC0010E2
:101DA00098D20010C8DB0010F0B5C64600B582B06E
:101DB00006008846002400230027002101E00131AD
:101DC0000137934201D3A34204D2706ACD00401977
:101DD00040681B18944201D3A34204D9356DF80022
:101DE0002D18686824189342E9D39442E7D3A3429C
:101DF000E5D1022342465371002402E001990139E2
:101E0000013400290FDB01AA3000FFF70CFC0100B0
:101E100043461B68013BA342F0D801984346320079
:101E2000FFF728FCEAE702B080BCB846F0BD00002E
:101E30000FB400B583B004AA02CA0192044B1B6818
:101E4000D8680AF069FA03B008BC04B01847C04665
:101E5000B4010008F0B5DE4657464E464546E0B5AB
:101E600085B0050092460023039302AAD37001783F
:101E70004348FFF7DDFF03A9072001F01BF901909C
:101E8000002800D078E02B78032B15D0D8239B00B6
:101E90009846039801F01BFA04008146280000F0E0
:101EA000DEF8070000940024002601235B429B46D5
:101EB0002B004546984613E0023B9846E9E7039815
:101EC00001F012F901235B42019340E0002E06D09D
:101ED0005B46013303D1A34601E0009301260134A0
:101EE000A54215D943461878E119012302AA033205
:101EF00000F03CFD0028E2DB02AB03331B784B45CE
:101F0000E4D0002EE9D05A46002A28DC0093E6E708
:101F10000026002E25D15B46013315D051460831ED
:101F2000002000F05BFA00281FDB009B0133DBB2CE
:101F3000032B02D901239C46E344022251464A71F5
:101F40005246594611601371039801F0CDF801987B
:101F500005B0F0BCBB46B246A946A046F0BD009312
:101F6000D7E70848FFF764FFD5E7039801F0BCF80E
:101F700001235B420193EAE701235B420193E6E719
:101F80001CDC001054DC00100368013B59430800BE
:101F90007047012800D170470220FCE70FB400B55C
:101FA00083B004AA02CA0192044B1B68D8680AF0E5
:101FB000B3F903B008BC04B01847C046B401000828
:101FC00010B5054910220AF0E7FC002801D00220D4
:101FD00010BD0120FCE7C046DCD3001030B585B051
:101FE00004000D001022002168460AF0E3FC002CDA
:101FF0001AD12900012001F05DF8041E02D0200052
:1020000005B030BD10236A460949012000F0AEFC3E
:10201000041E05D10749102268460AF0BDFC0400E1
:10202000286801F061F8EAE701246442E7E7C04666
:10203000CC050000DCD3001000487047CB05000041
:1020400010B5FFF7F9FF013810BD10B5FFF7F8FF25
:10205000013810BD10B5FFF7F8FF043810BD00209F
:1020600070470000F8B504000D0017001E00FFF7D0
:10207000E7FFA84202D12378012B08D02078330053
:102080003A00290000F006FC002810D1F8BD012E0E
:10209000F4D10848FFF782FF200000F0CBFC0028B5
:1020A000ECD00548FFF77AFF01204042EEE701201F
:1020B0004042EBE77CDC0010B4DC001010B5007887
:1020C000054A1023054900F0E5FB002800D110BDAA
:1020D00001204042FBE7C046DCD30010CC050000E5
:1020E00030B583B00C00002301930B68002B27D080
:1020F0008B79002B0CD0032001A900F0DBFF002816
:1021000008D00124019800F0EFFF200003B030BD9B
:102110000120F1E70198FFF7A2FF0500012120004F
:10212000FFF732FF291823796A4603321370019BA7
:102130001878012300F0AEFB041EE3D00124E1E790
:102140000124E2E7F0B5DE4657464E464546E0B587
:1021500089B004000D00002302AAD371029302A9E2
:10216000072000F0A7FF002800D017E120781023F7
:1021700004AA984900F0FAFB002800DA11E10023D4
:10218000002B12D000239B4600930298102204A932
:10219000FEF782F9002846D003232B705B46002B04
:1021A00014D100270023994644E02278012A03D065
:1021B000022A06D00133E3E700239B460133009354
:1021C000E3E701239B4600230093DEE7A368102288
:1021D000524291469944102304AA4946200000F037
:1021E00084FF061E00D0DFE0102204A92000FEF7C5
:1021F00053F9002803D003232B7000271AE004A80A
:10220000FFF7DEFEC0B22870012804D0002E00DAED
:10221000CDE001270EE02078102304AA6D4900F0DC
:1022200039FB0600F2E704A8FFF7CAFE2870002772
:10223000002399462000FFF708FF010020780123C2
:1022400002AA073200F092FB002800DAB2E00298FE
:10225000012202ABD91DFEF71FF9002802D16B78CD
:10226000042B43D901236B7000232B712000FFF74F
:10227000E7FE01002078AE1C0123320000F076FB5F
:10228000002800DA99E0029801223100FEF704F9F3
:10229000002834D00323AB702000FFF7CDFE0100EF
:1022A00001902078EB1C98460123424600F05EFB2B
:1022B000061E00DA84E0029801224146FEF7ECF89F
:1022C000002851D00323EB70A9784B1E5A4253418A
:1022D000DBB29A462378032B16D05B46002B19D12C
:1022E000009B002B13D10126764241E002AB07335D
:1022F0001B780F221A406A701B092B71B6E7A87869
:10230000FFF747FEA870C7E73348FFF747FE53467D
:10231000002B2DD0A36818225242914699440123E4
:1023200042464946200000F0E0FE061E4BD1012245
:1023300041462000FEF7B0F8002802D00323EB70DE
:1023400016E0E878FFF725FEC0B2E870022803D156
:10235000002E3BDB00270BE0207801234246019949
:1023600000F098FA0600F3E7E878FFF712FEE8704D
:10237000002F04D02378032B01D0002E07D030008B
:1023800009B0F0BCBB46B246A946A046F0BD10223B
:102390004946200000F037FF0600F0E701267642AC
:1023A000EDE701267642EAE701267642E7E70126D5
:1023B0007642E4E701267642E1E701267642DEE74F
:1023C00001267642DBE701267642D8E701267642EF
:1023D000D5E7C046CC050000D0DC001030B583B096
:1023E0000C0001A9FFF7FAFD002801D003B030BDB1
:1023F000019D2800FFF72EFE01002878042322000B
:1024000000F0B4FAF2E7000030B583B00C000978B0
:102410002748FFF7C3FD0023019301A9072000F01F
:1024200049FE002831D12378032B11D0002100F080
:102430003AFF00282CDBC5B20121002000F033FF59
:10244000002828DBC0B22378AB4201D0834225D1DB
:10245000207800F003FA011E23DBC022019812014C
:1024600000F0D1FE051E1FD12378032B05D1019862
:1024700000F03AFE280003B030BDA1684039402288
:10248000200000F0C0FE0500F1E701256D42F1E7F4
:1024900001256D42EEE701256D42EBE701256D4216
:1024A000E8E701256D42E5E701256D42E2E7C04618
:1024B00004DD001030B583B00C00150005220021AA
:1024C00068460AF077FA21782248FFF767FD6946E7
:1024D0000220FDF7F0FF002813D1E979012916D178
:1024E0006B46DB78012B1ED0A9682000FDF786FF24
:1024F000002823D12000FFF7E1FD002824D103B0FC
:1025000030BD154B154A1648164909F0B5FC002296
:102510002000FEF707F80028E2D00F4B0F4A1048C2
:10252000114909F0A9FC2000FDF7E8FF0028DBD0E5
:10253000094B0A4A0A480D4909F09EFC064B074A16
:1025400007480B4909F098FC034B044A0448094921
:1025500009F092FC28DD001050DD0010A8DD00100D
:1025600058DD001061020000650200006A020000F0
:102570006E02000079020000F0B585B006000D0083
:102580000023039302936A46D371FFF75FFB041E97
:10259000E8603BD002283CD001283CD1032703A9A6
:1025A000380000F087FD002838D102A9073000F07C
:1025B00081FD002835D103982A003100FFF74AFC3D
:1025C000041E1DD10398FFF740FD010001236A4658
:1025D0000732380000F0CAF9061E25DB02980122F6
:1025E0006B46D91DFDF758FF002803D06B4601222A
:1025F000DA7126006B46DA790F231340EB71340051
:10260000039800F071FD029800F06EFD200005B007
:10261000F0BD0127C3E701246442F7E701246442C7
:10262000F4E701246442F1E701246442EEE700008C
:10263000F0B5DE4657464E464546E0B587B0804683
:102640000091914603930023059305A9072000F00C
:1026500031FD051E00D093E00026002301930027E2
:102660009B46029319E04948494BC35C1B06FF2275
:102670005200825C12041343FE22FF32825C12027B
:1026800013430831425C13439A46FEF755F8504510
:102690002AD001239C46E3440136012E3FD8740022
:1026A000A419640244448023384A05989B00210001
:1026B00000F01BFD051E66D1344AF823FF33D35CBE
:1026C0001B06FB214900515C09040B43F621FF3135
:1026D000515C09020B43FA214900525C13432D4A15
:1026E0009342C0D00137D7E7284AFC23FF33D35C9D
:1026F0001B06FD214900515C09040B43FA21FF31FF
:10270000515C09020B43FC214900525C1343019ABE
:102710009A42C1D8039A166001930294BCE7022F33
:102720000FD05B46022B1CD101256D42059800F0AD
:10273000DBFC280007B0F0BCBB46B246A946A04669
:10274000F0BD0123039A136000234A4613600598E5
:1027500000F0BDFD0100FA22520000980AF02AF9AB
:10276000E4E74B46019A1A60FA2305985B00009A49
:10277000029900F0BAFC051ED8D001256D42D5E7BC
:1027800001256D42D5E701256D42D2E7706A000848
:10279000FF010000EFBEADDEF0B5CE46474680B586
:1027A00083B006000D009846531C99460020019006
:1027B00001A9073000F07EFC002836D11E4CFA2714
:1027C0007F003A00414620000AF069F9FC235B00D3
:1027D0004A46E250194B1B68E35108373900200084
:1027E000FDF7AAFFE051012D1DD001356C006419E1
:1027F0006402A419802201989200210000F003FDD8
:10280000002815D180230C4A01989B00210000F07C
:10281000A4FC0400019800F067FC200003B0C0BCD9
:10282000B946B046F0BD0025E0E701246442F4E774
:1028300001246442F1E7C046706A0008BCDD001064
:1028400010B5054910220AF0A7F8002801D002208F
:1028500010BD0120FCE7C046DCD3001082B00200AE
:1028600001AB0121197001315970013199700023B8
:10287000002004E0C02109018C4660440133022B92
:1028800004D801A9C95C9142F4D101E00120404281
:1028900002B07047F0B5CE46474680B583B006001B
:1028A0000F0090461C00002301930093FA21490079
:1028B000380009F097F90D00FB43A34242D33B19BE
:1028C000284A934241D83000FFF7C8FF061E3FDB7D
:1028D000FA214900380009F0FFF8400236180027B5
:1028E0000120404203E0220010E000240025002CDB
:1028F00033D01D4901AB6A463000FFF799FE00282E
:1029000029DBFA235B009C42EDD95A1B164B9946F2
:10291000280048444346D9190AF0C1F8009A0199A1
:102920004B463000FFF738FF002816D1FA235B0032
:102930009C42DAD3F53CFF3C0C339C466644F537A9
:10294000FF37D3E70120404207E00120404204E086
:102950000120404201E00120404203B0C0BCB94622
:10296000B046F0BDDC050000706C0008F0B5CE4646
:10297000474680B583B007000D0091461C00002338
:1029800001930093FA214900280009F02BF90E0069
:10299000EB43A34239D32B19244A934238D8380049
:1029A000FFF75CFF071E36DBFA214900280009F01B
:1029B00093F840023F1800239846002515E02200B6
:1029C000484640441A4971180AF069F8FA235B0036
:1029D0009C4208D3F53CFF3C0C339C4667440C3BBF
:1029E0009C46E04400E000240026002C18D010494A
:1029F00001AB6A463800FFF71BFE051E0EDBFA230B
:102A00005B009C42DBD99A1BDAE701256D4207E0A7
:102A100001256D4204E001256D4201E001256D4272
:102A2000280003B0C0BCB946B046F0BDDC050000CC
:102A3000706C0008F0B5CE46474680B5744CA5448E
:102A400006000023829382A9072000F033FB0028B0
:102A500006D08B239B009D44C0BCB946B046F0BD58
:102A6000829800F034FC01900700829800F03CFB53
:102A70001722002184A809F09DFF34783000FFF769
:102A8000E9FA0100172384AA2000FFF76FFF00284E
:102A9000DFD1604802AB9C466044FFF7D1FE0128BD
:102AA00000D0ABE00020FDF790FC0500300000F006
:102AB000EEFB421E80239B009A4200D3A1E004005B
:102AC00000E02418AC42FCD380239B009C4200D938
:102AD0009AE0B168091B2200300000F094FB002846
:102AE000B7D1300000F0F3FB81464B4B02AA94466D
:102AF00063441870601B60442A00494609F05AFF7D
:102B000010235B429846A044B94509D01022019990
:102B1000404802AB9C466044FDF7AAFC002846D121
:102B2000404602AB9C46604410223A49614409F099
:102B3000B6FF2200183A384B02A98C4663441B7832
:102B4000BB423FD084A98979B94240D0334961441E
:102B5000097802A8815401212200203A8154083AC0
:102B6000BB4239D084A90979B94237D085A90978FF
:102B700002A88154302252429046A044BB4206D063
:102B80003432019984A8FDF773FC00282BD140460C
:102B900002AB9C466044042284A909F080FFB1681E
:102BA000091B230002AA300000F0D7FA51E7404683
:102BB00002AB9C466044184B63441978102209F01C
:102BC000F9FEB6E7154902A884466144C0E71249F8
:102BD00002A884466144BBE785A9C8E70E4902A85C
:102BE00084466144C3E7404602AB9C4660440A4BBE
:102BF00063441978042209F0DDFED0E70120404249
:102C000027E70120404224E70120404221E7C04657
:102C1000D4FDFFFF0F020000070200000E020000BB
:102C2000F0B5D6464F464646C0B582B004000D000A
:102C3000170099460AAA13789A46002844D000291A
:102C400046D0002F48D00E89CB68F618042301AA7D
:102C50003100380000F049FA8046002840D101AB2D
:102C60001A88274B9A421FD06B89002B40D101ABA9
:102C70001A88244B9A423FD1256067604B462381D6
:102C80005346A3726B899B19E3606B899B1901AA58
:102C900052889B18636104362661404602B0E0BC4E
:102CA000BA46B146A846F0BD6B8901AA51888B424D
:102CB0001AD189190423380000F017FA0028D6D059
:102CC00001235B429846E8E701235B429846E4E72C
:102CD00001235B429846E0E701235B429846DCE72C
:102CE00001235B429846D8E701235B429846D4E72C
:102CF00001235B429846D0E701235B429846CCE72C
:102D00000869000007690000F0B583B004000F00F7
:102D100015001E00002849D00368002B4AD04368E4
:102D2000002B4AD000294BD0002A1FD1012040425D
:102D30003EE021696068042301AA00F0D6F900286A
:102D400041D1A37A002B03D02269E3689A423DD295
:102D500023891F4A934217D001AA1288934213D0A5
:102D600001AB58882369C018043020612369626967
:102D7000934219D222685289002ADAD0E2689A4234
:102D8000D7D104332361D4E7002E02D001AB1B88D6
:102D90003380236904333B6001AB5B882B8022695D
:102DA0009B180433236103E0012001E0012040422D
:102DB00003B0F0BD01204042FAE701204042F7E7AE
:102DC00001204042F4E701204042F1E70120EFE713
:102DD000FFFF0000064AD0239B00D05803E0044ABE
:102DE000D0239B00D058431CF9D0C0B27047C046D6
:102DF0000000634010B50400002003E021000348F8
:102E000006F096FA0028F9D010BDC04600006340D5
:102E100070B506000D00002106F058FC00210120CD
:102E200006F022FD040007F015FCE9004B08C0186D
:102E300008F052FE421E002C08D0002C0CD0326844
:102E400080231B0613433360200070BD0021012046
:102E500006F048FC0400F0E70021012006F0C2FC67
:102E60000400ECE770B50C001600002901D0002525
:102E700009E00025280070BD2078094B1870FFF785
:102E8000B9FF01340135B542F4DA23780A2BF3D1C6
:102E9000034B1B780D2BEFD00D20FFF7ABFFEBE7BB
:102EA000A06E000870B50C001600002901D00025A6
:102EB00003E00025280070BD0134B542FADAFFF7BF
:102EC00089FF207001350A28F4D00D28F4D1F1E7EC
:102ED00010B504000A4A0B490B4806F03DFA0028D9
:102EE00008D0002805D1084A116880231B060B432F
:102EF000136010BD21000448FFF78AFFF1E7C046C8
:102F0000646E0008D0EF00100000634070B505004B
:102F10000C0007E00B4B1B689800C0184000FDF741
:102F2000E7F9013C002C0BD082229200AB58DB0564
:102F3000DB0DA958C90B01220A409B18002BE9D1CF
:102F400070BDC0463801000810B5024806F08CFB81
:102F500010BDC0460000634010B50549C0225200B4
:102F60008B58012003438B5008F050FB10BDC04626
:102F7000000026400349C02252008B5801208343A1
:102F80008B5070470000264070B50500431E9BB271
:102F90002B4A93424ED82B4B1B78002B4DD1294BFB
:102FA00001221A70284B1B78002B0FD0FFF7E2FF8D
:102FB000264B1D8000240C2C1FD8254BA2009B18EB
:102FC0005B88AB4213D90134E4B2F4E7214C803280
:102FD000FF32A35801263343A35008F017FBE12228
:102FE000D200A358B343A350174B1E70DEE7184B13
:102FF000D35AAB4202D91D0000E00C24164B1C70C2
:10300000200008F0E9FAE803FA21890008F064FDDD
:103010001122121B01239340C01A80B20D4AC22311
:103020005B00D358C01880B208F0BEFAFFF794FFD7
:10303000002070BD01204042FBE701204042F8E73C
:103040006F170000A46E0008A56E0008A26E0008AD
:103050002CDE001000002640A16E00080FB400B561
:1030600083B004AA02CA0192044B1B68D86809F015
:1030700053F903B008BC04B01847C046B4010008B7
:1030800010B5002910D07F2804D180235B050B6088
:10309000002010BD064C80237F2201002000FFF796
:1030A000DDFF01204042F4E701204042F1E7C04645
:1030B00060DE001010B500290AD00022094B9400F0
:1030C000E358002B0AD01C78844204D00132F5E783
:1030D0000120404204E00B60002001E0012040425A
:1030E00010BDC046C40000087047F0B5C64600B524
:1030F00082B004000D0090461E0000230193002AB8
:103100001BD000281CD083688B421CD3B3421CD335
:103110008A1993421BD3407801A9FFF7B1FF071E1C
:1031200016D16168019BC918491963787F2B0FD1AB
:103130003200404609F0B3FC0AE001277F4207E075
:1031400001277F4204E0072702E0072700E0072766
:10315000380002B080BCB846F0BDF0B5CE46474658
:1031600080B583B007000E0014009946002201923A
:10317000002C31D0002836D083688B4235D34B45A4
:1031800035D34A468A18934233D3407801A9FFF7D2
:1031900077FF051E21D17B68019A9B189846B044A1
:1031A0007B787F2B27D14B46DB0526D14346DB05B9
:1031B000DF0D002B23D14B465E0AB7420DD2210012
:1031C000404605F01FFC00281BD180239B009C4635
:1031D000E04464440137F0E70125280003B0C0BC97
:1031E000B946B046F0BD0125F7E70725F5E7072505
:1031F000F3E70725F1E70125EFE70725EDE70725C9
:10320000EBE70125E9E7F0B583B005000F001400F6
:103210000023019300282FD083688B422FD3934241
:103220002FD38A1893422ED3407801A9FFF728FFA5
:10323000061E29D16B68019A9B18DB19E4186A787D
:103240007F2A21D15D0A6D02640A6402A5420CD076
:10325000641B640A002C17D0013C6002401905F081
:1032600097FB0028F6D001260EE0280005F090FB21
:10327000002809D0012607E00126764204E007264F
:1032800002E0072600E00726300003B0F0BD00286A
:1032900004D043787F2B03D0002070470020FCE748
:1032A00080208000F9E700280AD101290BD00229EB
:1032B0000BD0002902D00120404270470130FCE7CA
:1032C00001204042F9E70220F7E70320F5E74378C1
:1032D0007F2B00D0FEE7002070470000F8B5CE46F7
:1032E000474680B589469046002200E001322B4BCC
:1032F0009100CD58002D02D02B788342F6D1002DBD
:103300003FD04B46002B3FD04346002B3FD0AC680C
:103310006B787F2B0ED00024012630190138310044
:1033200008F0DAFBD8239B00984200D976006D683C
:10333000002711E08026B600EFE73100A14200D956
:103340002100FB00434459601D606D18A14202D862
:10335000641A013700E00024002C07D03100280057
:1033600008F040FC0029E8D0711AE7E74B461B68DB
:10337000BB420FD34B461F600020C0BCB946B046CD
:10338000F8BD01204042F8E701204042F5E7012066
:103390004042F2E701204042EFE7C046C400000887
:1033A00001BEFDE710B50400830505D103685B0786
:1033B00002D14368DB0701D4FFF7F2FF1A4A1B482A
:1033C000121A002109F0F6FA194A1A48121A0021B5
:1033D00009F0F0FA184A1948121A002109F0EAFA1D
:1033E000174A1848121A002109F0E4FA164AAC23C9
:1033F0009B00D450D358A342DED1144B9C609B68F1
:10340000A342D9D1BFF34F8FBFF36F8F236883F3EC
:103410000888EFF308829342CED1BFF34F8FBFF3FA
:103420006F8F63689847C7E720050008C000000851
:1034300000F00108007300080000020800F0010815
:10344000FC720008D40500080000214000ED00E0F7
:1034500070B50368CD1A002D52DD1E7800241C576C
:10346000002C0ADB5C1C04601B7813601368026884
:10347000891A8B4253D8002070BD7F243440032C1E
:1034800030D011D8012C25D0022C0AD1022D3DDDDF
:103490005C7824029B782343136003680333036042
:1034A000E4E764204042E7E7042C10D1042D33DD2B
:1034B0005C7824069D782D042C43DD782D022C4366
:1034C0001B7923431360036805330360CEE7642050
:1034D0004042D1E7012D16DD5B78136003680233AB
:1034E0000360C3E7032D14DD5C7824049D782D026E
:1034F0002C43DB7823431360036804330360B5E790
:1035000060204042B8E760204042B5E7602040427A
:10351000B2E760204042AFE760204042ACE7602065
:103520004042A9E770B504680D1B002D07DD257822
:103530009D4207D101340460FFF78AFF70BD60200F
:103540004042FBE762204042F8E730B583B0040018
:103550001500022301AAFFF7E5FF002801D003B000
:1035600030BD019A2168280000F0CBFD2368019A44
:103570009B182360F3E770B5050014000323FFF7E1
:10358000D1FF00280AD12368002B08D0013B23601B
:103590002B681A78002A05D101332B6070BD682092
:1035A0004042FBE768204042F8E7F0B5C64600B568
:1035B00082B00500884617001E00302301AAFFF7DD
:1035C000B1FF041E2CD12B684246D11A002931DDEF
:1035D0001B783A0008C22968019B88469844062354
:1035E00041462800FFF79EFF041E19D12A68BA60E1
:1035F0007B68D2182A60424517D01378320008C27F
:103600002B6801332B6041462800FFF721FF041E81
:1036100006D12B68B36072689B182B6043450CD1B0
:10362000200002B080BCB846F0BD0C21300003F091
:103630009FFEF5E760246442F2E766246442EFE708
:10364000431C013150005940084058400138704730
:10365000F0B5CE46474680B591465A42944600267C
:103660000DE0B4004A46155967463D400C192768DD
:10367000B8465F1E424617403D43256001368642EC
:10368000EFD3C0BCB946B046F0BD020080231B0694
:1036900000201F2804D81A4202D15B080130F8E745
:1036A0007047030048405B1A594008405840C00F1B
:1036B0007047F0B5C64600B5844698460020002500
:1036C0000EE0AE0094598442BF417F42241A434623
:1036D0009B599C4280414042C019E41A8C510135EB
:1036E0006545EED380BCB846F0BDF0B5CE46474642
:1036F00080B587B08446039102920193002305931D
:10370000DFE103980299059A019B1F0CB9461F043B
:103710003F0CB84640C8370C3604360C4446744358
:103720004B465E434D467D4343465F43330CED18A5
:103730003B0CED18A418002255413304E418554100
:103740003B04E41855410B68E4186A4110C140C8B5
:10375000370C3604360C444674434B465E434D46A4
:103760007D4343465F43330CED183B0CED18A41822
:10377000002255413304E41855413B04E4185541F7
:103780000B68E4186A4110C140C8370C3604360C87
:10379000444674434B465E434D467D4343465F4338
:1037A000330CED183B0CED18A418002255413304DE
:1037B000E41855413B04E41855410B68E4186A418C
:1037C00010C140C8370C3604360C444674434B468F
:1037D0005E434D467D4343465F43330CED183B0C3F
:1037E000ED18A418002255413304E41855413B0458
:1037F000E41855410B68E4186A4110C140C8370C01
:103800003604360C444674434B465E434D467D4376
:1038100043465F43330CED183B0CED18A41800220F
:1038200055413304E41855413B04E41855410B68F5
:10383000E4186A4110C140C8370C3604360C4446BF
:1038400074434B465E434D467D4343465F43330CD2
:10385000ED183B0CED18A418002255413304E41870
:1038600055413B04E41855410B68E4186A4110C106
:1038700040C8370C3604360C444674434B465E430E
:103880004D467D4343465F43330CED183B0CED182A
:10389000A418002255413304E41855413B04E418B0
:1038A00055410B68E4186A4110C140C8370C360412
:1038B000360C444674434B465E434D467D43434677
:1038C0005F43330CED183B0CED18A4180022554152
:1038D0003304E41855413B04E41855410B68E418DF
:1038E0006A4110C140C8370C3604360C4446744354
:1038F0004B465E434D467D4343465F43330CED18D4
:103900003B0CED18A418002255413304E41855412E
:103910003B04E41855410B68E4186A4110C140C8E3
:10392000370C3604360C444674434B465E434D46D2
:103930007D4343465F43330CED183B0CED18A41850
:10394000002255413304E41855413B04E418554125
:103950000B68E4186A4110C140C8370C3604360CB5
:10396000444674434B465E434D467D4343465F4366
:10397000330CED183B0CED18A4180022554133040C
:10398000E41855413B04E41855410B68E4186A41BA
:1039900010C140C8370C3604360C444674434B46BD
:1039A0005E434D467D4343465F43330CED183B0C6D
:1039B000ED18A418002255413304E41855413B0486
:1039C000E41855410B68E4186A4110C140C8370C2F
:1039D0003604360C444674434B465E434D467D43A5
:1039E00043465F43330CED183B0CED18A41800223E
:1039F00055413304E41855413B04E41855410B6824
:103A0000E4186A4110C140C8370C3604360C4446ED
:103A100074434B465E434D467D4343465F43330C00
:103A2000ED183B0CED18A418002255413304E4189E
:103A300055413B04E41855410B68E4186A4110C134
:103A400040C8370C3604360C444674434B465E433C
:103A50004D467D4343465F43330CED183B0CED1858
:103A6000A418002255413304E41855413B04E418DE
:103A700055410B68E4186A4110C140C8370C360440
:103A8000360C444674434B465E434D467D434346A5
:103A90005F43330CED183B0CED18A4180022554180
:103AA0003304E41855413B04E41855410B68E4180D
:103AB0006A4110C105920291039010235B4298461F
:103AC000C44463460F2B00D91BE66346072B00D87E
:103AD00025E103980299059A019B1F0CB9461F0422
:103AE0003F0CB84640C8370C3604360C4446744385
:103AF0004B465E434D467D4343465F43330CED18D2
:103B00003B0CED18A418002255413304E41855412C
:103B10003B04E41855410B68E4186A4110C140C8E1
:103B2000370C3604360C444674434B465E434D46D0
:103B30007D4343465F43330CED183B0CED18A4184E
:103B4000002255413304E41855413B04E418554123
:103B50000B68E4186A4110C140C8370C3604360CB3
:103B6000444674434B465E434D467D4343465F4364
:103B7000330CED183B0CED18A4180022554133040A
:103B8000E41855413B04E41855410B68E4186A41B8
:103B900010C140C8370C3604360C444674434B46BB
:103BA0005E434D467D4343465F43330CED183B0C6B
:103BB000ED18A418002255413304E41855413B0484
:103BC000E41855410B68E4186A4110C140C8370C2D
:103BD0003604360C444674434B465E434D467D43A3
:103BE00043465F43330CED183B0CED18A41800223C
:103BF00055413304E41855413B04E41855410B6822
:103C0000E4186A4110C140C8370C3604360C4446EB
:103C100074434B465E434D467D4343465F43330CFE
:103C2000ED183B0CED18A418002255413304E4189C
:103C300055413B04E41855410B68E4186A4110C132
:103C400040C8370C3604360C444674434B465E433A
:103C50004D467D4343465F43330CED183B0CED1856
:103C6000A418002255413304E41855413B04E418DC
:103C700055410B68E4186A4110C140C8370C36043E
:103C8000360C444674434B465E434D467D434346A3
:103C90005F43330CED183B0CED18A418002255417E
:103CA0003304E41855413B04E41855410B68E4180B
:103CB0006A4110C105920291039008235B42984625
:103CC000C44402E703980299059A019B1F0CB94668
:103CD0001F043F0CB84640C8370C3604360C444627
:103CE00074434B465E434D467D4343465F43330C2E
:103CF000ED183B0CED18A418002255413304E418CC
:103D000055413B04E41855410B68E4186A4110C161
:103D100005920291039001235B429846C444634696
:103D2000002BCFD10BE002990B689B180B60029A15
:103D300008CA05998B429B415B4205930292059A02
:103D4000002AF0D107B0C0BCB946B046F0BDF8B506
:103D500007000D0014001E00002A10D082420ED968
:103D600000230800390007F061FF002901D001207D
:103D70004042002E02D044432D1B3560F8BD002E7A
:103D800002D001235B42336001204042F6E710B5C8
:103D9000890003F0EDFA10BD00BA704770B5050058
:103DA000002911D0094B9C4661448C00041909E09C
:103DB0002868FFF7F1FF06002068FFF7EDFF01C557
:103DC0002660043CA542F3D970BDC046FFFFFF3F0B
:103DD000F0B5D6464F464646C0B504000D009246A3
:103DE00098468E08032129404B1E99417618B3004E
:103DF00099465F1B4368B3421ED380683A00002196
:103E000008F0D8FDA0686268921B92004844002127
:103E100008F0D0FDA168C9192A004046D047051E08
:103E200005D02800E0BCBA46B146A846F0BDA0685F
:103E30003100FFF7B3FFF4E704256D42F1E70123FA
:103E40000360002343608360704710B5041E0DD0EB
:103E50008068002805D06168FFF799FFA06808F026
:103E600061F80123236000236360A36010BD00009C
:103E7000F8B506000C00124B99421BD845688D42DC
:103E800001D30020F8BD0421200008F013F8071E1C
:103E900013D0B168002909D0AA0008F000FE7168AB
:103EA000B068FFF774FFB06808F03CF87460B76062
:103EB0000020E7E710204042E4E710204042E1E71D
:103EC0001027000070B505000C1E09D043688B4216
:103ED0000AD0FFF7BAFF21002800FFF7C9FF70BD25
:103EE000FFF7B3FF0020FAE780688A00002108F09E
:103EF00061FD01232B600020F1E7000070B5040094
:103F00000D001A4B99422AD843688B4209D9013BCC
:103F1000002B09D0A26898008258002A04D1013BE6
:103F2000F6E7FFF7A5FF19E001339D4200D81D0019
:103F30000421280007F0BEFF061E13D0A168002947
:103F400009D0AA0008F0ABFD6168A068FFF71FFF69
:103F5000A06807F0E7FF6560A660002070BD102034
:103F60004042FBE710204042F8E7C046102700001F
:103F7000F8B506000D00884236D04A68002A01D004
:103F8000013A0DE04268002A01D100272AE001230E
:103F9000036080689200002108F00CFDF5E7013A0B
:103FA000002A04D0AB689400E358002BF7D0541CCF
:103FB0002B6833607268A24206D221003000FFF7FE
:103FC00057FF071E09D00DE0B068A300C018121BF0
:103FD0009200002108F0EEFC0027B068A968A2005A
:103FE00008F05DFD3800F8BD0027FBE7F8B50400D8
:103FF0000F005542EDB21543ED094968FFF738FF50
:10400000061E01D03000F8BD396820682A00FFF78D
:1040100017FB20607868BA68A1682B00FFF718FBCF
:104020007A6807E0A1689300C9186B1E086803400E
:104030000B60013263689342F4D8E3E770B5040083
:104040000E000121FFF714FF051E01D0280070BDEE
:10405000A06862689200002108F0ACFCA368F11728
:1040600072184A401A60002E02DB01232360EDE73C
:1040700001235B42FAE743685B018B4209D98268FE
:104080004B099B009B581F220A40D3400120184037
:1040900070470020FCE730B504000020002563686D
:1040A000AB420DD900221F2A08D8A368A900CB581B
:1040B000D340DB0705D401320130F4E70135EEE7E8
:1040C000002030BD10B501004068002812D0441E09
:1040D000002C06D08B68A200D358002B01D1013CE4
:1040E000F6E78A68A300D058FFF7CFFA2023181A02
:1040F0006401201810BD10B5FFF7E4FF0730C008B9
:1041000010BDF0B5CE4600B582B005000191140097
:104110009608032313405A1E9341F618B000031B60
:10412000994631002800FFF7CDFE071E01D1002C73
:1041300004D1380002B080BCB946F0BDA86848443C
:104140002200019908F0ABFCA8683100FFF726FEB9
:10415000EFE70000F0B5C64600B504000F004D09BA
:104160001F260E40FFF7AEFFC01963685B01834254
:1041700003D31F2F26D9636817E041091F2303408B
:104180005A1E9341C9182000FFF772FE0028F0D094
:104190001BE0A0685A1B1B4959188900194FBC46DF
:1041A0006244920012584250013BAB42F1D807E002
:1041B000A268144959188900521800211160013B66
:1041C000002BF5D1002E1BD1002080BCB846F0BDDD
:1041D000A368A9005B1818682022921B9046020071
:1041E000B2401A60A3685B18196839431960013539
:1041F0004346D84007006368AB42E9D80020E4E7B3
:104200000027F8E7FFFFFF3FF0B5C64600B54C09B1
:104210001F250D404368A34209D306D01F2916D895
:10422000002D3BD04168002632E0002DF6D0002161
:10423000FFF704FF2FE081681A199E009200525880
:104240008A5101334268121B9A42F4D807E00023D6
:10425000F8E7826899005218002111600133426822
:104260009A42F6D8DCE783680D4A8A1892009B18B8
:104270001F682024641BA0463C00EC401C6083683F
:104280009B181A6832431A6001393E0043469E402B
:104290000029E8D1002080BCB846F0BD0020FAE734
:1042A000FFFFFF3F30B54368002B08D084681B4AEE
:1042B0009A1892001259002A01D1013BF4E74A688A
:1042C000002A08D08D68154C1419A4006459002CDC
:1042D00001D1013AF4E71C00144312D0934212D8E2
:1042E00013D3002B0BD084680C4A9A189200A45860
:1042F0008D68AA5894420BD80CD3013BF1E70020FB
:1043000000E0002030BD0120FCE701204042F9E739
:104310000120F7E701204042F4E7C046FFFFFF3FDE
:1043200070B506004368002B08D0B468214A9A187B
:1043300092001259002A01D1013BF4E74A68002A91
:1043400008D08D681B481418A4006459002C01D1B2
:10435000013AF4E71800104324D0934219D81AD335
:104360003068002802DD0A68002A1DDB0A68002A7E
:1043700001DD00281ADB002B12D0B4680D4A9A1810
:104380009200A4588D68AA5894420CD806D3013BD9
:10439000F1E7306807E00868404204E0404202E08C
:1043A000002000E0002070BD0120FCE70120404219
:1043B000F9E7C046FFFFFF3FF0B5DE4657464E46E1
:1043C0004546E0B583B082468B46914642684B68CD
:1043D0009A4246D103685B100125290019400191DA
:1043E0005A461268521053401D400B002B404A465B
:1043F00013604368984629E05B469B681A4F474420
:10440000BF0052469268D159D859FFF74AF90126A0
:10441000741B0440019B1C4049460B681C430C6004
:10442000054351468B6859468A68D159D859FFF7D8
:1044300038F9731B0340019AB61A1E4034434B46A9
:104440001C60054301235B429C46E0444346002B2D
:10445000D2D1002003B0F0BCBB46B246A946A0466C
:10446000F0BD04204042F5E7FFFFFF3F00B585B0F7
:10447000CA178B185340009300290ADB01230193CC
:10448000012302936B46039301A9FFF749FF05B08F
:1044900000BD01235B42F2E7F8B50700140090422B
:1044A00014D0B94204D03800FFF762FD002843D190
:1044B00001233B606668002E0BD0A1681F4BF318E8
:1044C0009B005B58002B04D1013EF4E70C00010077
:1044D000E7E731003800FFF7CBFC00282CD1A168BA
:1044E000BA68002400250EE008C99C461368E3184A
:1044F0001360A342A4416442634408C263459B41E4
:104500005B421C190135B542EED306E01368E3188F
:1045100008C2A342A44164420135002C0CD07B6840
:10452000AB42F3D8691C3800FFF7A2FC002803D186
:10453000BA68AB00D218E9E7F8BDC046FFFFFF3FFD
:10454000F0B5C64600B5060088461700546800E07E
:10455000013C002C06D0BD682B4BE3189B005B5937
:10456000002BF5D043465968A14247D33000FFF7EE
:104570007FFC051E13D143465B68A34213D87368C2
:104580004246526893421AD843469A68BB68B1685B
:104590002000FFF78EF800281AD10123336028008D
:1045A00080BCB846F0BDB068A20094466044424664
:1045B00091681B1B9A00614408F071FADFE7B0684C
:1045C000910040189A1A9200002108F0F3F9DBE7F5
:1045D0007168A14209D9B368A2009B181A68002A21
:1045E00003D1013A1A600134F2E7A14209D0B3685D
:1045F000A4001B191A68013A1A60CEE70A256D4219
:10460000CDE70A256D42CAE7FFFFFF3FF8B5060078
:104610000C0015000F6813687B43002B18DA11009B
:104620002000FFF73FFE002808DB2A0021003000B1
:10463000FFF786FF002810D137600EE02200290026
:104640003000FFF77DFF002807D17F42376004E08C
:10465000FFF722FF002800D13760F8BDF8B506004B
:104660000C0015000F6813687B43002B18DD110048
:104670002000FFF717FE002808DB2A002100300089
:10468000FFF75EFF002800D13760F8BD2200290047
:104690003000FFF755FF0028F7D17F423760F4E77D
:1046A000FFF7FAFE0028F0D13760EEE710B584B0CE
:1046B000D417131963400093002A0ADB01230193E6
:1046C000012302936B46039301AAFFF7C7FF04B0CF
:1046D00010BD01235B42F2E7F0B5D6464F46464691
:1046E000C0B586B080460E00170003A8FFF7A7FBF1
:1046F0006846FFF7A4FBB0450DD0B84514D07568E7
:10470000002D1AD0B268344BEB189B009B58002B3D
:1047100013D1013DF4E7310003A8FFF729FC8246DD
:10472000002828D103AEE8E739006846FFF720FCEF
:10473000824600281FD16F46E1E7002D0DD00023EF
:1047400099467C68002C0BD0BA68234BE3189B0079
:104750009B58002B04D1013CF4E701239946F0E774
:10476000002C01D10123994629194046FFF780FB0F
:10477000824600280CD06846FFF767FB03A8FFF7C6
:1047800064FB504606B0E0BCBA46B146A846F0BD50
:1047900000214046FFF752FC824600280DD0EAE790
:1047A000B16843469A680C4BE0188000BB681B5800
:1047B00012182800FEF799FF013C002CF0D14B465F
:1047C000002B03D0012342461360D4E732683B68D4
:1047D000534342461360CEE7FFFFFF3FF0B5C646A6
:1047E00000B580460E0017004C6800E0013C002C2C
:1047F00006D0B568134BE3189B005B59002BF5D02E
:10480000002F01D0002C08D100214046FFF716FCF4
:104810000500280080BCB846F0BD611C4046FFF78B
:1048200027FB051EF5D131004046FFF7A1FB051E11
:10483000EFD1B1687B1E424692682000FEF755FF1B
:10484000E7E7C046FFFFFF3FF0B5DE4657464E465E
:104850004546E0B599B00700884616001D000021C6
:104860001800FFF703FE002800D1A7E115A8FFF705
:10487000E6FA12A8FFF7E3FA0FA8FFF7E0FA0CA890
:10488000FFF7DDFA0123099302330A9306AB0B937A
:1048900029003000FFF706FD002812DA002F05D0AE
:1048A00000213800FFF7CAFB041E10D14346002B3D
:1048B00005D031004046FFF75BFB041E07D1002402
:1048C00015E0310015A8FFF753FB041E17D015A8FB
:1048D000FFF7BBFA12A8FFF7B8FA0FA8FFF7B5FA6F
:1048E0000CA8FFF7B2FA0C2106A802F041FD200047
:1048F00019B0F0BCBB46B246A946A046F0BD29009F
:1049000012A8FFF735FB041EE1D101231293159382
:10491000716802310FA8FFF7ABFA041ED7D100214E
:104920000FA8FFF78BFB041ED1D1716802310CA8D0
:10493000FFF79EFA041ECAD112A8FFF7C3FB1F237C
:1049400018401E280FD81B1A02939946190015A863
:10495000FFF700FC041EBAD1494612A8FFF7FAFB84
:10496000041E02D0B3E700230293169B5A1E019245
:10497000139A9346013A03925A469B1A99465B0151
:104980009A46190012A8FFF7E5FB041E9FD14C467A
:1049900012A915A8FFF7C4FC00280EDB119BA2008A
:1049A0009B181A6801321A6012AA15A90800FFF7AD
:1049B00055FE0028ECD0040089E7514612A8FFF705
:1049C00023FC041E00D082E7B946039F0496AA4642
:1049D000019BBB4200D8BEE0179B01998C0018597F
:1049E000149ABD005259904230D3119ACB1B75498D
:1049F0008C4663449B0001214942D150019B012B0D
:104A000039D9179A70498C4663449B00D2580B9B46
:104A10001A60019B002B30D0179A6A498C46634478
:104A20009B00D2580B9B5A60179A0B9B12599A60A5
:104A3000119B019AD21B0392624E94466644B600C3
:104A40009B191A6801321A605C462EE001995D4E8E
:104A5000B44661448E000596119E0199C91B0391CD
:104A60000399614489007618059959580023FFF786
:104A70006EF93060C2E70022C9E7019AD2E73A0036
:104A80000E9B1A60149A0E9B52595A60119B9A59A8
:104A90000CA90800FFF7A2FE002800D08CE009A9AD
:104AA0000CA8FFF73DFC002813DD119B9B191A6829
:104AB000013A1A6000210CA8FFF7C0FA002800D0C4
:104AC00078E0002FDBD0149A3F4BE3189B00D258BC
:104AD000D6E7A346119B9A5912A90CA8FFF77EFEB0
:104AE000041E00D0F3E6039D013D6D0129000CA8D2
:104AF000FFF730FB041E00D0E9E60CAA15A9080058
:104B0000FFF7ACFD041E00D0E1E6002115A8FFF779
:104B1000ADFC002803DB019B013B019358E712A980
:104B20000CA8FFF725FA041E00D0D0E629000CA837
:104B3000FFF710FB041E00D0C9E60CAA15A9080057
:104B4000FFF764FD041E00D0C1E6119B9B191A6893
:104B5000013A1A60DFE74F46049E5546002F0AD0FF
:104B60000FA94846FFF704FA041E00D0AFE63268EA
:104B70002B6853433B604346002B00D1A7E60299C4
:104B800015A8FFF741FB041E00D0A0E6336815937B
:104B900015A94046FFF7ECF9041E00D097E6002166
:104BA0004046FFF763FC002800D090E60123424610
:104BB00013608CE604008AE6040088E60C24644254
:104BC00095E6C046FFFFFF3FFEFFFF3F70B50500C3
:104BD0000C00160000211000FFF748FC002824DB21
:104BE0003300220029000020FFF72EFE041E0CD106
:104BF00000212800FFF73AFC002808DA32002900DB
:104C00002800FFF703FD041EF2D0200070BD310024
:104C10002800FFF785FB0028F7DB32002900280079
:104C2000FFF71CFD041EF2D0EFE70A246442ECE714
:104C3000F0B587B005000F00160003A8FFF7FFF8D6
:104C40006846FFF7FCF8390003A8FFF791F9041E46
:104C500008D003A8FFF7F9F86846FFF7F6F8200038
:104C600007B0F0BD31006846FFF782F9041EF0D1AD
:104C700003A8FFF710FA04006846FFF70CFA061EB7
:104C800005D100216846FFF7F6F9002806D0B442A6
:104C900000D8260001230093039312E03900280076
:104CA000FFF766F90400D4E703AA69466846FFF7F0
:104CB00047FC041ECDD101216846FFF7A5FA041E6A
:104CC000C7D1002103A8FFF7D1FB002825D003A8F6
:104CD000FFF7E1F9010003A8FFF796FA041EB8D127
:104CE0006846FFF7D8F901006846FFF78DFA041E01
:104CF000AFD1694603A8FFF713FB0028D4DB6A464F
:104D000003A90800FFF71CFC041EA2D1012103A87F
:104D1000FFF77AFA041ED4D09BE731006846FFF70C
:104D200019FA041E00D094E769462800FFF720F91D
:104D300004008EE7F0B5DE4657464E464546E0B5E0
:104D400089B00500894616000193012307930023CB
:104D500006931000FFF7B6F98046072343449A46AE
:104D6000DB089B464B46002B58DB49463000FFF7DB
:104D70007DFB002855DD5346272B14D91E2703A899
:104D8000FFF75DF871682800FFF79CF8041E0CD04F
:104D900003A8FFF75AF8200009B0F0BCBB46B246A2
:104DA000A946A046F0BDFA27E9E7716803A8FFF716
:104DB0005FF8041EECD1494603A8FFF73FF9041E33
:104DC000E6D1129B019A59462800FFF701F8041E0C
:104DD000DED10723514699434346C91A2800FFF7FD
:104DE00013FA041ED4D1013F002F14D007AA03A93F
:104DF0002800FFF7E1FA041ECAD106AA31002800F4
:104E0000FFF7DAFA041EC3D1079B002BD9D1069B0A
:104E1000002BD6D0BCE70E246442B9E704246442D8
:104E2000B9E704246442B6E7F0B59DB005000F0071
:104E3000160001211000FFF719FB002800DC39E102
:104E400016A8FEF7FCFF13A8FEF7F9FF10A8FEF75F
:104E5000F6FF0DA8FEF7F3FF19A8FEF7F0FF0AA86A
:104E6000FEF7EDFF07A8FEF7EAFF04A8FEF7E7FF4D
:104E700001A8FEF7E4FF3200390019A8FFF7D8FEB9
:104E8000041E07D1012119A8FFF7F0FA00281FD04E
:104E90000E24644216A8FEF7D8FF13A8FEF7D5FF2C
:104EA00010A8FEF7D2FF0DA8FEF7CFFF19A8FEF756
:104EB000CCFF0AA8FEF7C9FF07A8FEF7C6FF04A8A3
:104EC000FEF7C3FF01A8FEF7C0FF20001DB0F0BD34
:104ED0003200390016A8FFF779FE041EDAD116A9B0
:104EE00013A8FFF745F8041ED4D131000AA8FFF734
:104EF0003FF8041ECED1310007A8FFF739F8041E91
:104F0000C8D1012110A8FFF799F8041EC2D10021D1
:104F10000DA8FFF793F8041EBCD1002104A8FFF7E9
:104F20008DF8041EB6D1012101A8FFF787F8041EF1
:104F30001CD0AFE70AAA10A90800FFF767FB041E00
:104F4000A8D116AA0DA90800FFF788FB041EA1D15D
:104F5000012110A8FFF758F9041E00D09AE701219B
:104F60000DA8FFF751F9041E00D093E7159B1B68AD
:104F7000DB072DD4012113A8FFF746F9041E00D04A
:104F800088E7129B1B68DB07D4D40F9B1B68DB07E9
:104F9000DED5CFE70AAA04A90800FFF737FB041EF5
:104FA00000D077E716AA01A90800FFF757FB041EF7
:104FB00000D06FE7012104A8FFF726F9041E00D0F6
:104FC00068E7012101A8FFF71FF9041E00D061E77F
:104FD000099B1B68DB070FD4012107A8FFF714F911
:104FE000041E00D056E7069B1B68DB07D2D4039B48
:104FF0001B68DB07DED5CDE707A913A8FFF790F9FB
:1050000000282BDB07AA13A90800FFF727FB041EC3
:1050100000D03FE704AA10A90800FFF71FFB041EF9
:1050200000D037E701AA0DA90800FFF717FB041EFF
:1050300000D02FE7002113A8FFF718FA002895D118
:10504000002104A8FFF712FA00281FDA320004A991
:105050000800FFF7DBFA041EF2D01BE713AA07A92A
:105060000800FFF7FBFA041E00D013E710AA04A9FA
:105070000800FFF7F3FA041E00D00BE70DAA01A900
:105080000800FFF7EBFA041ED4D003E7310004A8B0
:10509000FFF746F9002807DB320004A90800FFF7F4
:1050A000DDFA041EF2D0F5E604A92800FEF760FF41
:1050B0000400EFE60424644207E7F8B506000F0099
:1050C0001100C46D0734E4089C4200D91C00220082
:1050D0003800FFF716F8051E10D1E400F16D8C4280
:1050E00005D9611A3800FFF78FF8051E06D14C3636
:1050F00031003800FFF714F9002801DA2800F8BD64
:10510000320039003800FFF7A9FA0500F6E7012060
:1051100070470000F0B59DB004000D001600059327
:1051200007A800F0F7FF19A8FEF789FE16A8FEF7FA
:1051300086FE13A8FEF783FE10A8FEF780FE2078F7
:10514000FFF7E5FF002800D182E0636D002B00D15E
:1051500080E001212298FFF789F9002807DB27006A
:105160004C3739002298FFF7DBF8002812DB3A4D64
:1051700007A801F00AF819A8FEF767FE16A8FEF7BF
:1051800064FE13A8FEF761FE10A8FEF75EFE28007D
:105190001DB0F0BD01212398FFF768F90028E6DB78
:1051A00039002398FFF7BCF80028E0DA33002A0022
:1051B00019A92000FFF781FF051ED9D13A002399D4
:1051C00016A8FFF731FE051ED2D116AA19A913A8F9
:1051D000FFF782FA051ECBD13A0013A90800FFF7AA
:1051E000F5FC051EC4D116AA229910A8FFF774FA7F
:1051F000051EBDD13A0010A90800FFF7E7FC051E07
:10520000B6D12300283300220292059A019210AAF7
:10521000009213AA07A9200001F0B4FC051EA7D133
:1052200007A801F0B3FB002801D00B4DA0E73A001E
:1052300007A90800FFF7CAFC051E00D098E72299CD
:1052400007A8FFF76DF8002800D191E7024D8FE71E
:10525000024D9CE7014D9AE700B2FFFF80B0FFFFCF
:10526000F0B58DB004000D0016001F000B93129BCB
:105270009C46674407A8FEF7E2FD04A8FEF7DFFDA1
:1052800030230AAA39000BA8FEF74CF9002816D1E2
:105290000B9B0A9A9B18BB422FD107AA39000BA877
:1052A000FEF753F900280DD0154BC41807A8FEF7D8
:1052B000CCFD04A8FEF7C9FD20000DB0F0BD104BD9
:1052C000C418F3E704AA39000BA8FEF73EF900283A
:1052D000EAD123008833139A029204AA019207AA02
:1052E0000092320029002000FFF714FF041EDDD1D8
:1052F0000B9BBB42DAD0034CD8E7034CD6E7C04641
:1053000080B0FFFF00B4FFFF1AB0FFFF10B582B0FE
:1053100000240194049C0094FFF7A2FF02B010BD8A
:1053200010B500F025FF10BD10B5002801D000F029
:1053300071FF10BD436F002B04D0836F002B03D08F
:10534000002070470020FCE70120FAE770B5C56D2A
:10535000C0235B009D4211D30524002901D00134F4
:10536000E4B2002903D0FFF7E5FF002802D1042CA6
:1053700000D90424A54203D9200070BD0424ECE721
:105380000224F9E770B506000D0011001A0028008C
:10539000FFF764F9041E0FD12B68002B0CDA0021F3
:1053A0002800FFF763F8002806D0321D29002800E6
:1053B000FFF72CF9041EEFD0200070BDF8B50500F2
:1053C0000E004B6E002B1FD00368002B22DB280041
:1053D000FEF778FEB36D5B00984220D8736E28000C
:1053E0009847041E2BD12B68002B1ADA00212800C5
:1053F000FFF73CF8002814D0321D29002800FFF7E1
:1054000005F9041EEFD01AE00A1D0100FFF7DEFBCC
:10541000040014E00021FFF729F80028D7D0094C38
:105420000DE0371D39002800FEF77AFF002806DB63
:105430003A0029002800FFF783F8041EF1D020006D
:10544000F8BDC04680B0FFFF70B505000C0011002C
:105450001A002000FFF740F9002800D070BD290095
:105460002000FFF7ABFF0028F8D1024A1368013390
:105470001360F3E7B06E0008F8B507000D001100E7
:105480002800FEF767FE041E0DD13E1D31002800E6
:10549000FEF746FF002806DB320029002800FFF750
:1054A0004FF8041EF1D02000F8BD70B584B005009F
:1054B0000C00160001A8FEF7C2FC0C34291D2200C6
:1054C00001A8FFF7CBF8051E05D001A8FEF7BDFC2B
:1054D000280004B070BD00212000FEF7C7FF0200C5
:1054E000531E9A41324001A92000FEF77FFD0500BE
:1054F000EBE7F0B5DE4657464E464546E0B583B08D
:1055000001900F00924698460CAB1B789B465B08B7
:105510003F221A409146002501E00135EDB2454594
:1055200019D2EC006419A40054444B46EE1A73429D
:105530005E41F6B2320021003800FEF757FD002828
:105540000FD121000C3138000C303200FEF74EFD37
:105550000028E2D005E05B46DA0939000198FFF740
:10556000A4FF03B0F0BCBB46B246A946A046F0BDBE
:10557000F8B5CE46474680B506000F0090469946DE
:105580004A1C002107F016FA00250EE0390061439D
:1055900049194846FEF76FFD0300A340705D1843AC
:1055A00070550134A045F1D80135BD4201D2002427
:1055B000F8E7002301201CE03518315C1A000A408E
:1055C00094465940297001234B4001221A409146CC
:1055D000441E335D5343DAB290460B406246134398
:1055E0004246514029704A46D201315D0A43325544
:1055F0000130B842E0D9C0BCB946B046F8BD0000A1
:10560000F0B589B007000E00009201930EAB1D7833
:1056100005A8FEF714FC02A8FEF711FC4C37002188
:105620003800FEF728FD01282CD100213000FEF7BC
:1056300022FD434258410F9C2070310005A8FEF71F
:1056400097FC041E08D002A8FEF7FFFB05A8FEF792
:10565000FCFB200009B0F0BD3200390002A8FEF7C3
:10566000FDFF041EEFD10F9C227802A905A8FEF7CA
:10567000BDFC041EE7D105AB2A0001990098FFF795
:1056800077FFE0E7004CE4E780B0FFFFF0B587B0BC
:1056900006000F0000213800FEF7E8FE00282CDB92
:1056A0003C000C3400212000FEF7E0FE002824DB43
:1056B000351D29003800FEF733FE00281DDA2900C9
:1056C0002000FEF72DFE002817DA03A8FEF7B7FB2F
:1056D0006846FEF7B4FB2200210003A8FEF7FCFF9A
:1056E000041E0CD0002C15D003A8FEF7AEFB6846B4
:1056F000FEF7ABFB200007B0F0BD444CFAE73100E9
:1057000003A8FFF75BFE041EECD1414A1368013386
:105710001360E7E73A0039006846FEF7DDFF041E34
:1057200045D0002CE0D1B369002B4BD032001032B1
:1057300069466846FEF76AFF041E0DD1351D290033
:105740006846FEF7EDFD002806DB2A00694668463C
:10575000FEF7F6FE041EF1D0002CC5D13A006946D2
:105760006846FEF7B9FF041E45D0002CBCD13200BC
:105770001C3269466846FEF749FF041E0DD1351DEF
:1057800029006846FEF7CCFD002806DB2A006946A2
:105790006846FEF7D5FE041EF1D0002CA4D1694660
:1057A00003A8FEF7BDFD00289ED0184C9CE73100F1
:1057B0006846FFF703FE041EB3D1154A1368013390
:1057C0001360AEE7032269466846FEF76FFF041ECA
:1057D00000D089E7009B002BC0DA00216846FEF765
:1057E00045FE0028BAD02A0069466846FEF70EFF3B
:1057F000041EEFD078E731006846FFF7DFFD041E96
:10580000B3D1034A136801331360AEE780B3FFFFDF
:10581000B06E0008F0B587B005000E000F00183715
:1058200000213800FEF722FE041E02D1200007B03E
:10583000F0BD03A8FEF703FB6846FEF700FB2A1D38
:10584000390003A8FFF7F0FA041E06D003A8FEF7FC
:10585000FCFA6846FEF7F9FAE8E703AA1100684681
:10586000FEF73AFF041E23D0002CEFD16A46310028
:105870003000FEF731FF041E25D0002CE6D10C3697
:105880006A4631003000FEF727FF041E26D0002CA8
:10589000DCD103AA31003000FEF71EFF041E28D021
:1058A000002CD3D101213800FEF7C8FB0400CDE75E
:1058B00029006846FFF782FD041ED5D1124A1368FD
:1058C00001331360D0E729003000FFF777FD041E95
:1058D000D3D10D4A136801331360CEE7290030009D
:1058E000FFF76CFD041ED2D1074A13680133136021
:1058F000CDE729003000FFF761FD041ED0D1024A38
:10590000136801331360CBE7B06E0008F0B5DE46D4
:1059100057464E464546E0B58BB081468846160050
:10592000012A08D90C21100006F0C4FA051E00D186
:1059300020E100240BE00968FFF76CFF040011E18F
:105940006000001980002818FEF779FA0134B4428B
:10595000F6D307A8FEF773FA04A8FEF770FA01A8B9
:10596000FEF76DFA4346196818312800FEF700FB70
:10597000041E36D1012702E0002C32D10137B74294
:105980001AD27900C91989006B189A460C3969181E
:10599000BB0042469A5818325046FEF79DFE041E40
:1059A000EAD149465046FFF709FD041EE4D1724A88
:1059B000136801331360DFE77100891989000C391E
:1059C00069184B461A1D07A8FFF72EFA041E08D1C6
:1059D000731E9A4668E007A904A8FEF7C9FA041ED8
:1059E00017D007A8FEF731FA04A8FEF72EFA01A88F
:1059F000FEF72BFA0027B0E0494604A8FFF7DEFCCB
:105A0000041E5FD15C4A1368013313605AE0002C16
:105A1000E7D104AA110001A8FEF75EFE041E69D0BA
:105A2000002CDED153469F0047443B689B4601AAA9
:105A300019001800FEF750FE041E66D0002CD0D1CD
:105A40003B680C2293469B4401AA59465846FEF7F0
:105A500043FE041E64D0002CC3D13B680C22934645
:105A60009B4404AA59465846FEF736FE041E62D0EF
:105A7000002CB6D138684B469968FEF73FFA041EF1
:105A8000AFD138684B4699680C30FEF737FA041EE0
:105A9000A7D138681830FEF7D8F95346002BA0D0AC
:105AA00001235B429C46E2445346002B93D05A00AC
:105AB000524492000C3AAA1807A904A8FEF70CFE5B
:105AC000041E99D0002C8CD153469B0042469A5814
:105AD000183207A90800FEF7FFFD041E97D14946BA
